:020000040800F2
:10000000F84F002045010008B342000841350008C0
:10001000AF4200087D170008F54500080000000009
:1000200000000000000000000000000085450008FE
:10003000CF17000800000000B54200085D0100086D
:100040005F0100085F0100085F0100085F01000810
:100050005F0100085F0100085F0100085F01000800
:100060005F0100085F0100085F0100085F010008F0
:100070005F0100085F0100085F0100085F010008E0
:100080005F0100085F0100085F0100085F010008D0
:10009000ED4500085F0100085F0100085F010008EE
:1000A0005F0100085F0100085F0100085F010008B0
:1000B0005F0100085F0100085F0100085F010008A0
:1000C0005F0100085F0100085F0100085F01000890
:1000D0005F0100085F0100085F0100085F01000880
:1000E0005F0100085F0100085F0100085F01000870
:1000F0005F0100085F0100085F0100085F01000860
:100100005F0100085F0100085F0100085F0100084F
:100110005F0100085F0100085F0100085F0100083F
:100120005F0100085F0100085F0100085F0100082F
:10013000DFF80CD000F060FC00480047B96A000806
:10014000F84F00200648804706480047FEE7FEE7D4
:10015000FEE7FEE7FEE7FEE7FEE7FEE7FEE7FEE777
:10016000894500083101000840EA01039B0703D0DC
:1001700009E008C9121F08C0042AFAD203E011F8E6
:10018000013B00F8013B521EF9D27047D2B201E0A8
:1001900000F8012B491EFBD270470022F6E710B58C
:1001A00013460A4604461946FFF7F0FF204610BDE5
:1001B000421E12F8013F002BFBD111F8013B02F85F
:1001C000013B002BF9D17047F0B480EA0102D40F53
:1001D0004200B2EB410F02D20246084611464A00E5
:1001E00042D0C30DDDB2C1F3C752AD1A202D35DAAE
:1001F000C1F3160141F4000204B15242C5F12006D8
:1002000002FA06F12A411044B3EBD05F23D0C4B107
:10021000012DA0EBC35009DCF0BC4FF0004202EA14
:10022000C352DBB200F5000000F0F2BA400000F16A
:10023000807000EBC350A0F1807040EAD17049009B
:1002400009E0490841EAC071A0EBC35000F5000085
:10025000400800EBC350F0BC00F0D1BA614201226B
:1002600002EB4101001BF6E7F0BC704781F0004152
:10027000AAE780F00040A7E780EA010210B502F08B
:100280000043400022D04A001FD0010E01EB126152
:10029000C0F35600C2F3560240F4000042F40002DC
:1002A000A0FB022000047F39140400D0401C50EA57
:1002B000124001D44000491EC2B20C0604EBD0101B
:1002C000401C4008802A02D003E0002010BD20F02E
:1002D0000100002900DA0020184310BD30B480EA84
:1002E000010202F0004530F0004221F0004013D03E
:1002F00090B1C30DD40DC2F31601C0F31600E41A79
:1003000041F4000140F400027D34914201D3641CA9
:1003100000E04900002C02DA30BC002070474FF4A6
:1003200000000023914201D3891A034340084FEA99
:100330004101F7D151B1914202D14FF0004105E0A6
:1003400002D24FF0010101E06FF0010103EBC45054
:10035000284430BC00F053BA2DE9FE4F804681EAB4
:100360000300C00F0C46009021F0004123F000452F
:10037000B8EB0200A94105D24046214690461C46F2
:100380000B46024623F00040104347D0270DC7F329
:100390000A00C3F30A510290401A019040286BDA18
:1003A000C3F3130040F4801B0098924620B1002351
:1003B000D2EB030A63EB0B0B01985946C0F14002E4
:1003C000504600F0FBF906460D4650465946019A44
:1003D00000F003FA10EB08006141002487EA115293
:1003E00084EAE7731A4340D0009A62B3019A012A63
:1003F0004FEA075215DC001B61EB02014FF000428F
:1004000002EA0752CDE90042001C41F58011324654
:100410002B4600F03AFA03B0BDE8F08F4046214683
:10042000F9E7001B61EB0201001C41F58013001885
:100430005B412018A2F5001747EB030140EAD57095
:10044000B6196D4111E06D084FEA360645EAC075F0
:100450004FEA0752001B61EB0201001C41F58011BD
:1004600049084FEA30000019514132462B4603B08B
:10047000BDE8F04F00F0FAB90098012240000023D7
:10048000D0EB020263EBE073009821464FEAE07480
:10049000B8EB000061EB0401E9E783F000435BE7A0
:1004A00081F0004158E72DE9FE4F81EA030404F092
:1004B000004421F0004100944FF0000B23F0004372
:1004C00050EA01045ED052EA03045BD0C3F30A543D
:1004D000C1F30A552C44A4F2F3340194A0FB025456
:1004E000C1F3130141F48011C3F3130343F48013E8
:1004F00001FB024400FB034E840A970A44EA81543C
:1005000047EA8357A4FB076802958D0A05FB078518
:100510004FEA932C04FB0C542705029D4FEA065822
:1005200047EA1637B5EB08056EEB070C870E920EFF
:1005300047EA811742EA8312A7FB0201B6EB0B01DF
:1005400064EB00042B0D43EA0C335E1844EB1C50A3
:10055000DA465146E7FB0201C5F313044FEA0B33B9
:1005600043EA14534FEA0432019C43EA0603A4F120
:100570000C040294009CCDE900B400F086F903B0AD
:10058000BDE8F08F00200146F9E72DE9F04D81EA42
:10059000030404F0004B21F0004514464FF0000A1C
:1005A00023F0004150EA050220D054EA01021DD098
:1005B000C5F30A570246C5F31303C1F31300C1F391
:1005C0000A5640F4801543F48013A7EB0608101B6D
:1005D000D64608F2FD3873EB050002D308F1010896
:1005E00001E092185B41B8F1000F03DA00200146E8
:1005F000BDE8F08D00204FF48011064684460EE0E1
:10060000171B73EB050705D3121B63EB05030643AA
:100610004CEA010C49084FEA300092185B4150EA5D
:100620000107EDD152EA030012D082EA040083EA06
:100630000501084305D0101BAB4106D2012200235F
:1006400006E000224FF0004302E06FF00102531079
:100650001AEB06004CEB085110EB0A0041EB0B01C2
:10066000BDE8F04D00F002B9C10F80EAE070084427
:10067000CA079623002100F0CBB89623002211462A
:1006800000F0C6B80EB5C10F80EAE0700844CA0792
:10069000002140F233438DE80E000A460B4600F07D
:1006A000F4F803B000BD0EB540F2334102910021D1
:1006B000CDE900110A460B4600F0E7F803B000BD93
:1006C00000F0004220F00040C10DC0F3160040F4DD
:1006D00000007F2901DA00207047962903DCC1F170
:1006E0009601C84001E096398840002AF4D0404283
:1006F000704720F00040C10DC0F3160040F4000028
:100700007F2901DA00207047962903DCC1F19601A8
:10071000C840704796398840704700F0004230F07A
:1007200000400AD0C10D01F56071C0F3160042EA25
:100730000151C2084007114370470020014670472D
:1007400030B5041E71F1000404DB4FF00044404258
:1007500064EB0101141E73F1000405DB1C464FF02D
:100760000043524263EB0403994208BF904230BDFC
:1007700001F0004330B421F0004150EA010206D0FC
:100780000A0DA2F56072C1F31301002A02DC30BC2D
:1007900000207047440F44EAC104C100E01830BC97
:1007A00000EBC25000F02BB8002801DBC0F1004084
:1007B000002901DBC1F1004188427047202A04DB97
:1007C000203A00FA02F1002070479140C2F1200364
:1007D00020FA03F3194390407047202A06DBCB1719
:1007E000203A41FA02F043EAE07306E041FA02F3EC
:1007F000D040C2F1200291400843194670470029B9
:10080000A8BF7047401C490008BF20F00100704796
:1008100010B4B0FA80FC00FA0CF050EA010404BFF6
:1008200010BC704749B1CCF1200421FA04F411FA4C
:100830000CF118BF012121430843A3EB0C01CB1D90
:100840004FEA00614FEA102042BF002010BC704701
:1008500000EBC35010440029A4BF10BC7047401CDB
:10086000490008BF20F0010010BC704710B5141EED
:1008700073F1000408DA401C41F1000192185B4159
:100880001A4301D120F0010010BD2DE9F04D924630
:100890009B4611B1B1FA81F202E0B0FA80F2203247
:1008A0009046FFF78BFF04460F4640EA0A0041EAF4
:1008B0000B0153465A46084313D0114653EA010030
:1008C00019D0C8F14002504600F0A8F805460E467F
:1008D000504659464246FFF771FF084305D00120B4
:1008E00004E020463946BDE8F08D0020054346EA85
:1008F000E0762C4337430A986305E40AA0EB08002E
:100900000022FD0A44EA47540A3002D5002001467D
:10091000E9E7010510196941DDE908450019694158
:10092000BDE8F04DA2E770B521F0004303430CD0C1
:10093000C1F30A550024D5EB040564EB0403D61774
:10094000AD1AB34102DB0020014670BD201841EB17
:10095000025170BD2DE9F04D00231A461B1A8A4141
:1009600003DB00200146BDE8F08DC1F30A52C1F35C
:10097000130141F480154FF0000BD10702D100188C
:100980006D41521E0027044640F2FF11384601EB2C
:10099000620A3E468046024600204FF4801100F075
:1009A0003DF8C2197141BB1846EB0100B4EB030CD2
:1009B00075EB000C04D3E41A65EB000517460E46F0
:1009C000241908F101006D4180463428E3DDF9194E
:1009D00046EB0600091BA84103D24FF0FF32134635
:1009E00001E0002213461BEB070046EB0A51BDE86D
:1009F000F04DFFF73BBF0000064C074D06E0E068F6
:100A000040F0010394E8070098471034AC42F6D355
:100A1000FFF792FB78A3000898A30008202A04DBC4
:100A2000203A21FA02F00021704721FA02F3D04067
:100A3000C2F12002914008431946704770B58C18E6
:100A400010F8015B15F0070301D110F8013B2A11E2
:100A500006D110F8012B03E010F8016B01F8016BCF
:100A60005B1EF9D12B0705D40023521E0DD401F8CB
:100A7000013BFAE710F8013BCB1A921C03E013F894
:100A8000015B01F8015B521EF9D5A142D8D30020C9
:100A900070BD00000FB5ABB02B98B0F88206139074
:100AA000DDE92B0103F08AFA2990DDE92B0103F03F
:100AB00009FA2890FE492898FFF786FB0D90FFF76A
:100AC0002CFE0022FB4BCDE90E0106F053FACDE9D6
:100AD0001001FFF74DFE2790F5492E98FFF774FBA4
:100AE0000D90FFF71AFE0022F24BCDE90E0106F041
:100AF00041FACDE91001FFF73BFE2690DDE9260122
:100B0000FFF7B4FB11902D99FFF7E8FB129026999F
:100B1000FFF7AFFB25902C98C06AE7491090FFF7CC
:100B2000ABFB4FF07E511190FFF74EFB0146129048
:100B30004FF07E50FFF7D2FB15904FF07E5016908D
:100B40002C98B0F940001090FFF78EFD11902C9872
:100B5000406B014610901198FFF78EFB4FF07E51CD
:100B60001290FFF731FB17902C98B0F94210B0F9B2
:100B70004000081A0F90FFF777FD10902C98806BBB
:100B800001460F901098FFF777FB4FF07E511190C0
:100B9000FFF71AFB12901798014611901298FFF771
:100BA0006BFB18902B98B0F814061290FFF765FDB8
:100BB0002490C2492498FFF7F7FD05D24FF08F41EA
:100BC0002498FFF753FB24902C98B0F9140011904F
:100BD000FFF74AFD12902499FFF780FB24902B9891
:100BE000B0F8800600F4805040111F902B98B0F8A8
:100BF00010061290FFF741FD22902B98B0F8500696
:100C00001290FFF73AFD23900020129024E022A9D1
:100C1000129851F82000A9491190FFF7C5FD0CD298
:100C200022A9129851F820004FF08F411190FFF740
:100C30001DFB22AA129942F8210022A9129851F80C
:100C4000200011902499FFF717FB22AA129942F86D
:100C500021001298401C129012980228D7DB984964
:100C60002998FFF703FB0E902C98C06901460D9060
:100C70000E98FFF701FB4FF07E510F90FFF7A4FA9B
:100C8000904911902898FFF7F1FA0C902C98006A7F
:100C900001460B900C98FFF7EFFA4FF07E510D9044
:100CA000FFF792FA0F902C9800F50050B0F94C0A1B
:100CB0000D90FFF7D9FC0E900F99FFF7DDFA109019
:100CC0001199FFF7D9FA12902298014611901298C3
:100CD000FFF7CFFA22902C9890F825101F988142A8
:100CE0003DD177492998FFF7C1FA0E902C98C06939
:100CF00001460D900E98FFF7BFFA4FF07E510F900E
:100D0000FFF762FA6F4911902898FFF7AFFA0C903D
:100D10002C98006A01460B900C98FFF7ADFA4FF043
:100D20007E510D90FFF750FA0F9042F64C212C980F
:100D30000844B0F902000D90FFF796FC0E900F9951
:100D4000FFF79AFA10901199FFF796FA12902398EC
:100D5000014611901298FFF78CFA239047E058490A
:100D60002998FFF783FA0E902C98C06901460D90E0
:100D70000E98FFF781FA4FF07E510F90FFF724FA9B
:100D8000504911902898FFF771FA0C902C98006A3E
:100D900001460B900C98FFF76FFA4FF07E510D90C3
:100DA000FFF712FA0F9042F64C212C980844B0F944
:100DB00002000C90FFF758FC0D902C9800F50050A5
:100DC000D0F8500A01460C900D98FFF7FDF90E90EF
:100DD0000F99FFF751FA10901199FFF74DFA129001
:100DE0002398014611901298FFF743FA23900020B0
:100DF000129026E21298C117109000EBD1604111B9
:100E00001298C217119000EB92608011A1EB400084
:100E100040B21E901298119000EBD07041101298C1
:100E2000A0EB41011E98414048B21D901298801CD1
:100E3000C1170E9000EB917081101298C01CC21760
:100E40000F9000EB9270A1EBA0011298401CC2170A
:100E5000109000EB927001EBA0011298C217119054
:100E600000EB9270A1EBA0011E984000C0F10100C0
:100E7000414348B21B901F9810B91E981C9001E086
:100E80001D981C902B98B0F882161C9881427DD139
:100E900012992B9830F811001190FFF7EEFB21907A
:100EA00006492198FFF780FC12D24FF08F410BE0EA
:100EB00033938843000010400000204200FEFF46AC
:100EC000333353400000C8412198FFF7CFF92190F8
:100ED00024992198FFF7D0F92190DD492998FFF74F
:100EE000C5F90D9041F644612C980144129851F8CF
:100EF000200001460C900D98FFF7BEF94FF07E518F
:100F00000E90FFF761F9D34910902898FFF7AEF9DA
:100F10000B9041F244212C980144129851F8200082
:100F200001460A900B98FFF7A7F94FF07E510C90FD
:100F3000FFF74AF90E902C9800F64440129930F9C8
:100F400011000C90FFF790FB0D900E99FFF794F9AC
:100F50000F901099FFF790F911902199FFF789F9F7
:100F600021902C9890F825101F9881422AD01B9828
:100F7000FFF77AFB0F9042F650212C980844406806
:100F800001460E900F98FFF777F900E056E11190B7
:100F90001E984000401E0D90FFF766FB0E9042F633
:100FA00050212C980844806801460D900E98FFF758
:100FB00063F90F902199FFF707F910901199FFF746
:100FC00055F921902D992198FFF788F9219022A9B0
:100FD000139851F8200010902C9880690F90109968
:100FE000FFF74AF911902199FFF743F921909949A8
:100FF0002898FFF73BF90E902C98806A01460D90D7
:101000000E98FFF739F94FF07E510F90FFF7DCF89B
:10101000119042F644212C980144139851F8200075
:101020000E902C9880690D900E99FFF725F90F907E
:101030002C984430129950F8210001460E900F98D8
:10104000FFF717F910901199FFF716F920902599DD
:101050002098FFF711F90A902199FFF7B5F80B9046
:10106000FFF75BFBCDE90E012098FFF756FB00224E
:10107000794BCDE90A0105F07DFFCDE90C01DDE9F1
:101080000E23FFF710FACDE91001FFF771FB1A905C
:101090002C98006B0B90FFF740FBCDE90E011A98DE
:1010A000FFF73BFBCDE9080106F0E5FFCDE90A01BA
:1010B00006F0E1FFCDE90C01DDE90E23FFF7F3F9BE
:1010C000CDE91001FFF754FB1A902C98006B63498F
:1010D0000390FFF7D1F84FF07E510490FFF7C9F865
:1010E00005902099FFF7C8F806901A99FFF76CF859
:1010F000014607902198FFF7F1F808902599FFF72E
:1011000063F80990FFF709FBCDE90A0106F0B3FF88
:10111000CDE90C0106F0AFFF4FF0C042504BCDE9D6
:101120000E01FFF7BAF9CDE91001FFF721FB199085
:101130002C98B0F93E001090FFF796FA119019998B
:10114000FFF732FB02D2002014901DE02C98B0F97A
:1011500040001090FFF788FA11901999FFF724FBCF
:1011600002D2012014900FE02C98B0F942001090A8
:10117000FFF77AFA11901999FFF716FB02D20220B5
:10118000149001E0032014902C983C30149930F90D
:1011900011000190FFF768FA02901999FFF769F8BA
:1011A00003902C982C30149950F82100014602909D
:1011B0000398FFF761F84FF07E510490FFF704F8B1
:1011C00015A90690149851F8200001460490209823
:1011D000FFF752F805900699FFF74EF80146079081
:1011E0002198FFF77BF808902599FEF7EDFF09900D
:1011F000FFF793FACDE90A0106F03DFFCDE90C01B6
:1012000006F039FF4FF06632154BCDE90E01FFF7BE
:1012100044F9CDE91001FFF7ABFA1990114919987B
:10122000FFF72AF810491090FEF7CEFF1190FFF754
:1012300060FA82B21299309820F811201298401C5E
:1012400012901298B0F5407FFFF6D4AD2FB000BDDC
:10125000333353400000C8410000084033938843B3
:1012600066127140000020410000C84300B587B0FD
:1012700040F2026006F01EFE40F2096006F01AFE1F
:101280004FF4A06006F016FE032006F0DBFD0323FA
:101290001A4600213B4804F0EBFE00213A4804F0D6
:1012A000ADF83A48009000208DF8180038480290B8
:1012B00001208DF819004002019080000390002069
:1012C0008DF81A0002200490000305906A46002160
:1012D0002D4804F0CBF800212B4804F076F80021CB
:1012E000294804F059F829484C3803F06FFA0020D7
:1012F00003F0DEFA0122022124484C3803F04BFBB4
:101300000122110221484C3803F045FB00211F48FF
:101310004C3803F04FFA022201211C484C3803F0EC
:1013200026FA05230022114618484C3803F0CEFA5D
:1013300005230122114615484C3803F0C7FA4FF433
:101340006022012111484C3803F099FA012211461C
:101350000E484C3803F074FA0C484C3803F067FA26
:10136000012003F03DFE09484C3803F0EBF9074833
:101370004C3803F057FA012104484C3803F0FCFACA
:1013800007B000BD00080140000002404C240140AD
:10139000AC000020F0B504460D46059E28460DE041
:1013A000214608E000EB800701EB8717DFF814C047
:1013B0000CF80760491C9142F4D9401C9842EFD9BF
:1013C000F0BD0000A80100202DE9F84306460F46B5
:1013D00014469846089D002C08DA644243462D22A4
:1013E00039463046009500F077F80836642C30DB3B
:1013F000642094FBF0F0303000F0FF0943464A4689
:1014000039463046009500F067F80A2094FBF0F06A
:101410000A2190FBF1F201FB1200303000F0FF09CD
:1014200043464A46394606F10800009500F054F854
:101430000A2094FBF0F100FB1140303000F0FF096E
:1014400043464A46394606F11000009500F044F83C
:1014500028E00A2C1DDB0A2094FBF0F0303000F06D
:10146000FF0943464A4639463046009500F034F8B5
:101470000A2094FBF0F100FB1140303000F0FF092E
:1014800043464A46394606F10800009500F024F824
:1014900008E004F13000C2B24346394630460095B8
:1014A00000F01AF8BDE8F8832DE9F84105460E462C
:1014B00014461F46DDF81C8009E0CDF80080227834
:1014C0003B463146284600F007F80835641C207872
:1014D0000028F2D1BDE8F8812DE9F04705460E4617
:1014E0001F46DDF820C0A2F1200808F0FF02BCF181
:1014F000000F28D1002123E0134601EB0313DFF88E
:101500009C8018F80340002017E04FF0800848FA4C
:1015100000F808EA04084FF0800949FA00F9C845C4
:101520000AD101EB060909EB890905EB8919814408
:10153000DFF86CA00AF80970401C0828E5D3491CA4
:101540000829D9D328E0082124E0134601EB03132E
:10155000DFF8488018F80340002018E04FF08008BA
:1015600048FA00F808EA04094FF0800848FA00F841
:10157000C1450BD1A1F10808B04408EB880805EB80
:1015800088188044DFF818A00AF80870401C082862
:10159000E4D3491C1029D8D3BDE8F0872A97000866
:1015A000A80100202DE9F84306460F461546984647
:1015B000089C002D09DA684205B243462D223946BF
:1015C00030460094FFF788FF0836B5F57A7F4CDB8C
:1015D0004FF47A7095FBF0F0303000F0FF0943468D
:1015E0004A46394630460094FFF776FF08366420B5
:1015F00095FBF0F00A2190FBF1F201FB1200303074
:1016000000F0FF0943464A46394630460094FFF74A
:1016100063FF0836642095FBF0F100FB11500A21AE
:1016200090FBF1F0303000F0FF0943464A4639465E
:1016300030460094FFF750FF083643462E223946C5
:1016400030460094FFF748FF08360A2095FBF0F17A
:1016500000FB1150303000F0FF0943464A4639463E
:1016600030460094FFF738FF7BE0642D38DB6420C0
:1016700095FBF0F0303000F0FF0943464A4639460A
:1016800030460094FFF728FF08360A2095FBF0F05B
:101690000A2190FBF1F201FB1200303000F0FF094B
:1016A00043464A46394630460094FFF715FF083650
:1016B00043462E22394630460094FFF70DFF083688
:1016C0000A2095FBF0F100FB1150303000F0FF09CB
:1016D00043464A46394630460094FFF7FDFE40E057
:1016E0000A2D25DB0A2095FBF0F0303000F0FF09D1
:1016F00043464A46394630460094FFF7EDFE083629
:1017000043462E22394630460094FFF7E5FE083660
:101710000A2095FBF0F100FB1150303000F0FF097A
:1017200043464A46394630460094FFF7D5FE18E056
:1017300043463022394630460094FFF7CDFE083646
:1017400043462E22394630460094FFF7C5FE083640
:1017500005F13000C2B24346394630460094FFF7E7
:10176000BBFE0836434604A2394630460094FFF7D4
:101770009BFEBDE8F88300002743000000BFFEE7A2
:1017800002460B46D11A11F1220F05DD11F11E0F91
:1017900002DA6FF00500704711F1020F04DD022933
:1017A00002DA6FF00500F6E71E2904DD222902DACD
:1017B0006FF00500EFE70020EDE70146087D00F03F
:1017C00040020AB9002070476FF00600FBE770473F
:1017D00038B5FE2009234FF4937200210090104683
:1017E000FFF7D8FDFE2009234FF49C7200210090E2
:1017F0001046FFF7CFFDFE2000234FF49C721946E0
:1018000000904FF49370FFF7C5FDFE2009234FF4BD
:101810009C72194600904FF49370FFF7BBFDFE20B9
:10182000062340F22312032100901046FFF7B2FD79
:10183000FE2006234FF49272032100901046FFF71A
:10184000A9FDFE20062340F2251203210090104638
:10185000FFF7A0FD4FF40051234804F05FFCB0B344
:10186000FF20082340F237120121009040F2271098
:10187000FFF790FD1D4800684FF425714843C0F301
:101880000F3540F21B20854201DA054604E040F2A4
:101890008220854200DD0546A5F21B20C0EB00102A
:1018A000672190FBF1F085B200240DE0FE20C4F525
:1018B0009B718AB2C4F59B71009088B20723022104
:1018C000FFF768FD601C84B2AC42EFDB0AE0FFE783
:1018D0009020082340F237120121009040F2271097
:1018E000FFF758FD38BD000000100140AC0000209B
:1018F0002DE9F04F8BB000200A9040F64850099037
:10190000002417E0FE4830F814100A98814204DDE4
:10191000FB4830F814000A900794F94830F8141086
:101920000998814204DAF64830F8140009900694C8
:10193000601C84B2B4F5407FE4DBDDE90910401A95
:1019400040F6E21191FBF0F080B20890EF2340F2F4
:101950003F120021084602F0C7F80420E949086058
:101960000820091D08604FF0000900254FF0000A0B
:10197000FAE04FEAA92BC9F30900ADF81200BDF84F
:101980001200C0F5806080B2ADF8100009F1C4000B
:101990001FFA80F94FF0000800245BE04FEAA8200E
:1019A0000390C8F30900ADF81600BDF81600C0F5A5
:1019B000806080B2ADF8140008F1C6001FFA80F80C
:1019C0001F2000EB4B110398081A86B2CC4830F860
:1019D0001600BDF814104843BDF810104843C84A1B
:1019E00006F1200132F81110BDF814205143BDF862
:1019F000122001FB0201701EC14A32F81000BDF82E
:101A000016205043BDF8102000FB0211BC4A06F11D
:101A10001F0032F81000BDF816205043BDF8122008
:101A200000FB02104FF6FF7101EA20570998381A9F
:101A3000089948430A2190FBF1F087B22846691CB7
:101A40008DB2B1490F542846691C8DB2AE490F546E
:101A5000601C84B2102CA1DB002406E02846691C1F
:101A60008DB2A9490C54601C84B2FE2CF6DB46F6FC
:101A70009A688F245BE04FEAA8200390C8F309001E
:101A8000ADF81600BDF81600C0F5806080B2ADF864
:101A9000140008F1C6001FFA80F81F2000EB4B115C
:101AA0000398081A86B2964830F81600BDF814104C
:101AB0004843BDF810104843914A06F1200132F81E
:101AC0001110BDF814205143BDF8122001FB020192
:101AD000701E8B4A32F81000BDF816205043BDF836
:101AE000102000FB0211864A06F11F0032F8100098
:101AF000BDF816205043BDF8122000FB02104FF62F
:101B0000FF7101EA20570998381A089948430A21B9
:101B100090FBF1F087B22846691C8DB27A490F54C8
:101B20002846691C8DB278490F54601C84B2A02CE1
:101B3000A1DB002412E0A5F5A07073490A5C2846D9
:101B4000691C8DB270490A54A5F5A0700A5C28463C
:101B5000691C8DB26C490A54601C84B2A02CEADB6B
:101B60000AF101001FFA80FABAF1050FFFF601AF82
:101B7000FFF72EFE00240DE06348005D634931F855
:101B80001000634908604FF40040624948610861F1
:101B9000601C84B2AC42EFDB00258EE04FEAA92B3B
:101BA000C9F30900ADF81200BDF81200C0F580605D
:101BB00080B2ADF8100009F1C4001FFA80F94FF0AF
:101BC000000800245BE04FEAA8200390C8F3090056
:101BD000ADF81600BDF81600C0F5806080B2ADF813
:101BE000140008F1C6001FFA80F81F2000EB4B110B
:101BF0000398081A86B2424830F81600BDF814104F
:101C00004843BDF8101048433D4A06F1200132F820
:101C10001110BDF814205143BDF8122001FB020140
:101C2000701E374A32F81000BDF816205043BDF838
:101C3000102000FB0211324A06F11F0032F810009A
:101C4000BDF816205043BDF8122000FB02104FF6DD
:101C5000FF7101EA20570998381A089948430A2168
:101C600090FBF1F087B22846691C8DB226490F54CB
:101C70002846691C8DB224490F54601C84B2A02CE4
:101C8000A1DB002413E0A5F5A0701F490A5C2946DA
:101C9000681C85B21C484254A5F5A0701A490A5C1C
:101CA0002846691C8DB218490A54601C84B2A02CC5
:101CB000E9DB0AF101001FFA80FABAF10A0FFFF618
:101CC0006DAF0020FE2314A2022100900420FFF734
:101CD000EBFB0020FE2312A202210090E620FFF77A
:101CE000E3FB002000900998A0F5C87002B2FE2323
:101CF00002212420FFF756FC002000900A9813E0F0
:101D0000A811002010080140A8010020F29F00083F
:101D10000C0C0140001001404D696E3A00000000BB
:101D20004D61783A00000000A0F5C87002B2FE23B1
:101D300002214FF48370FFF735FC00240DE0F948D1
:101D4000005DF94931F81000F84908604FF400408F
:101D5000F74948610861601C84B2AC42EFDB0025A2
:101D60008DE04FEAA92BC9F30900ADF81200BDF8C8
:101D70001200C0F5806080B2ADF8100009F1C40017
:101D80001FFA80F94FF0000800245BE04FEAA8201A
:101D90000390C8F30900ADF81600BDF81600C0F5B1
:101DA000806080B2ADF8140008F1C6001FFA80F818
:101DB0001F2000EB4B110398081A86B2DD4830F85B
:101DC0001600BDF814104843BDF810104843D94A16
:101DD00006F1200132F81110BDF814205143BDF86E
:101DE000122001FB0201701ED24A32F81000BDF829
:101DF00016205043BDF8102000FB0211CD4A06F119
:101E00001F0032F81000BDF816205043BDF8122014
:101E100000FB02104FF6FF7101EA20570998381AAB
:101E2000089948430A2190FBF1F087B22846691CC3
:101E30008DB2BC490F542846691C8DB2B9490F5464
:101E4000601C84B2A02CA1DB002412E0A5F5A070D8
:101E5000B4490A5C2846691C8DB2B2490A54A5F5FA
:101E6000A0700A5C2846691C8DB2AE490A54601CF9
:101E700084B2A02CEADB0AF101001FFA80FABAF161
:101E80000F0FFFF66EAF0120FE23AFF27412002198
:101E900000900420FFF708FB0120FE23AFF2801220
:101EA00000210090E620FFF7FFFA0120009009983A
:101EB000A0F5C87002B2FE2300212420FFF772FBB8
:101EC000012000900A98A0F5C87002B2FE230021FC
:101ED0004FF48370FFF766FB00240DE09148005D2E
:101EE000914931F81000914908604FF40040904941
:101EF00048610861601C84B2AC42EFDB96E04FEAB7
:101F0000A92BC9F30900ADF81200BDF81200C0F505
:101F1000806080B2ADF8100009F1C4001FFA80F9AA
:101F20004FF00008002463E04FEAA8200390C8F3B4
:101F30000900ADF81600BDF81600C0F5806080B24B
:101F4000ADF8140008F1C6001FFA80F81F2000EB5E
:101F50004B110398081A86B2764830F81600BDF87F
:101F600014104843BDF810104843724A06F120018E
:101F700032F81110BDF814205143BDF8122001FBB6
:101F80000201701E6B4A32F81000BDF81620504353
:101F9000BDF8102000FB0211664A06F11F0032F85E
:101FA0001000BDF816205043BDF8122000FB0210AF
:101FB0004FF6FF7101EA20570998381A08994843EB
:101FC0000A2190FBF1F087B2574830F81760554965
:101FD0000F55564806604FF4004055494861086166
:101FE000524806604FF4004048610861601C84B2AA
:101FF000A02C99DB002413E04A48005D4A4931F8DF
:1020000010604A4806604FF4004049494861086141
:10201000464806604FF4004048610861601C84B285
:10202000A02CE9DB0AF101001FFA80FABAF13A0F9D
:10203000FFF665AF002598E04FEAA92BC9F3090028
:10204000ADF81200BDF81200C0F5806080B2ADF8A6
:10205000100009F1C4001FFA80F94FF000080024B5
:102060005BE04FEAA8200390C8F30900ADF8160022
:10207000BDF81600C0F5806080B2ADF8140008F11C
:10208000C6001FFA80F81F2000EB4B110398081AB6
:1020900086B2284830F81600BDF814104843BDF841
:1020A00010104843234A06F1200132F81110BDF800
:1020B00014205143BDF8122001FB0201701E1D4A7D
:1020C00032F81000BDF816205043BDF8102000FB78
:1020D0000211184A06F11F0032F81000BDF8162050
:1020E0005043BDF8122000FB02104FF6FF7101EAC9
:1020F00020570998381A089948430A2190FBF1F0B3
:1021000087B22846691C8DB206490F542846691CBF
:102110008DB204490F54601C84B2A02CA1DB0024B2
:102120001DE00000A8010020F29F00080C0C0140F7
:1021300000100140A8110020A5F5A070FE490A5C1E
:102140002846691C8DB2FC490A54A5F5A0700A5CAA
:102150002846691C8DB2F8490A54601C84B2A02C30
:10216000EADB0AF101001FFA80FABAF13F0FFFF62D
:1021700063AFFF200523A522194600909B20FFF79F
:1021800009F9FF200923A022002100901046FFF743
:1021900001F900240DE0E848005DE84931F810003D
:1021A000E74908604FF40040E64948610861601C57
:1021B00084B2AC42EFDB96E04FEAA92BC9F30900E9
:1021C000ADF81200BDF81200C0F5806080B2ADF825
:1021D000100009F1C4001FFA80F94FF00008002434
:1021E00063E04FEAA8200390C8F30900ADF8160099
:1021F000BDF81600C0F5806080B2ADF8140008F19B
:10220000C6001FFA80F81F2000EB4B110398081A34
:1022100086B2CD4830F81600BDF814104843BDF81A
:1022200010104843C84A06F1200132F81110BDF8D9
:1022300014205143BDF8122001FB0201701EC24A56
:1022400032F81000BDF816205043BDF8102000FBF6
:102250000211BD4A06F11F0032F81000BDF8162029
:102260005043BDF8122000FB02104FF6FF7101EA47
:1022700020570998381A089948430A2190FBF1F031
:1022800087B2AE4830F81760AB490F55AC480660CE
:102290004FF40040AB4948610861A94806604FF41B
:1022A000004048610861601C84B2A02C99DB0024C6
:1022B00013E0A148005DA14931F81060A048066014
:1022C0004FF400409F49486108619D4806604FF403
:1022D000004048610861601C84B2A02CE9DB0AF16F
:1022E00001001FFA80FABAF16E0FFFF665AF002504
:1022F0008DE04FEAA92BC9F30900ADF81200BDF833
:102300001200C0F5806080B2ADF8100009F1C40081
:102310001FFA80F94FF0000800245BE04FEAA82084
:102320000390C8F30900ADF81600BDF81600C0F51B
:10233000806080B2ADF8140008F1C6001FFA80F882
:102340001F2000EB4B110398081A86B27E4830F824
:102350001600BDF814104843BDF8101048437A4ADF
:1023600006F1200132F81110BDF814205143BDF8D8
:10237000122001FB0201701E734A32F81000BDF8F2
:1023800016205043BDF8102000FB02116E4A06F1E2
:102390001F0032F81000BDF816205043BDF812207F
:1023A00000FB02104FF6FF7101EA20570998381A16
:1023B000089948430A2190FBF1F087B22846691C2E
:1023C0008DB25D490F542846691C8DB25A490F548D
:1023D000601C84B2A02CA1DB002412E0A5F5A07043
:1023E00055490A5C2846691C8DB253490A54A5F523
:1023F000A0700A5C2946681C85B24F484254601C94
:1024000084B2A02CEADB0AF101001FFA80FABAF1CB
:10241000730FFFF66EAF0020FE234CA20221009046
:102420000420FFF741F84B494B480068FDF724FFB3
:102430000190FEF745F902900020FE230090022152
:102440002420029AFEF7C0FF002000903E48B0F81A
:10245000E002A0F5C87002B2FE2302218C20FFF733
:10246000A1F80020FE233DA202210090F020FFF7FA
:102470001BF83B493B480068FDF7FEFE0190FEF764
:102480001FF900B202900020FE23009002214FF4B9
:102490008470029AFFF786F800240DE02648005D5C
:1024A000264931F81000264908604FF400402549BC
:1024B00048610861601C84B2AC42EFDB0025A6E0F5
:1024C0004FEAA92BC9F30900ADF81200BDF81200BC
:1024D000C0F5806080B2ADF8100009F1C4001FFAA9
:1024E00080F94FF00008002474E04FEAA820039020
:1024F000C8F30900ADF81600BDF81600C0F58060FD
:1025000080B2ADF8140008F1C6001FFA80F81F2051
:1025100000EB4B110398081A86B20B4830F81600EE
:10252000BDF814104843BDF810104843064A06F1A0
:10253000200132F8111017E0A8010020F29F0008D6
:102540000C0C014000100140A8110020653D302E08
:10255000000000000000C8420400002054613A005E
:102560000000204100000020BDF814205143BDF8B8
:10257000122001FB0201701E7F4A32F81000BDF8E4
:1025800016205043BDF8102000FB02117A4A06F1D4
:102590001F0032F81000BDF816205043BDF812207D
:1025A00000FB02104FF6FF7101EA20570998381A14
:1025B000089948430A2190FBF1F087B22846691C2C
:1025C0008DB26E490F542846691C8DB26B490F5469
:1025D000601C84B2A02C88DB002412E0A5F5A0705A
:1025E00066490A5C2846691C8DB264490A54A5F5FF
:1025F000A0700A5C2846691C8DB260490A54601CB0
:1026000084B2A02CEADB0AF101001FFA80FABAF1C9
:10261000780FFFF655AF0120FE23AFF2D002002164
:1026200000900420FEF740FF554956480068FDF72A
:1026300023FE0190FEF744F802900120FE23009053
:1026400000212420029AFEF7BFFE012000904A4894
:10265000B0F8E002A0F5C87002B2FE2300218C2081
:10266000FEF7A0FF0120FE23AFF210120021009020
:10267000F020FEF719FF444944480068FDF7FCFDCF
:102680000190FEF71DF800B202900120FE23009099
:1026900000214FF48470029AFEF784FF00240DE0BD
:1026A0003648005D3A4931F810003A4908604FF465
:1026B0000040394948610861601C84B2AC42EFDBDC
:1026C00007981F2828DD0798C11700EBD161491131
:1026D000A0EB4111314A515C4C000798C11700EB47
:1026E000D16149112E4A515C4FEA410A4FF61F0051
:1026F000E21DE11F009088B25346514601F0A2F856
:102700004FF61F000AF107030090AAF1070081B2FB
:102710002246204601F096F806981F2828DD0698E4
:10272000C11700EBD1614911A0EB41111B4A515C6B
:102730004C000698C11700EBD1614911184A515C51
:102740004FEA410A4FF4FC60E21DE11F009088B29D
:102750005346514601F076F84FF4FC600AF1070346
:102760000090AAF1070081B22246204601F06AF8E3
:102770000BB0BDE8F08F0000A8110020A8010020D8
:102780000000C8420400002000002041000000209A
:10279000F29F00080C0C014000100140F2A100085B
:1027A00012A200082DE9F04FC3B005460E460024E2
:1027B00015F8400F00F00F0006902878C0F30310C2
:1027C00007902888C0F30320089028881E2101EB79
:1027D00010300990B5F80290403D002025E08400BB
:1027E00000F1220115F8111001F00F012AAA42F898
:1027F000241000F1220115F81110C1F303122AABC5
:10280000611C43F8212000F1220135F81110C1F3B9
:102810000322A11C43F8212000F1220135F81110F8
:102820000A0BE11C43F82120401C0628D7DB0020BE
:102830000CE02AA951F82010072906DD2AA951F831
:10284000201010392AAA42F82010401C1828F0DB6A
:10285000002025E0840000F1280115F8111001F096
:102860000F010AAA42F8241000F1280115F81110EE
:10287000C1F303120AAB611C43F8212000F12801C7
:1028800035F81110C1F30322A11C43F8212000F1F7
:10289000280135F811100A0BE11C43F82120401CD7
:1028A0000828D7DB00200CE00AA951F820100729DE
:1028B00006DD0AA951F8201010390AAA42F82010A2
:1028C000401C2028F0DB4FF0000A78E04FF0000BAE
:1028D00070E0202000FB0AB404F1400135F811102B
:1028E000C1F30510FDF7C0FE06F1440141F82400D4
:1028F00051F824003549FDF757FF0BD206F144018A
:1029000051F824004FF08541FDF7B0FC06F1440179
:1029100041F824000122069902FA01F0FDF7A4FE15
:10292000074606F1440050F824103846FDF7A4FC91
:1029300006F1440141F824002AA951F82A10089A06
:10294000914001EB09030AA951F82B10079A914015
:102950005818FDF789FE074606F1440050F8241088
:102960003846FDF731FC06F1440141F8240009988E
:10297000FDF799FE02460B46CDE9000100204FF01D
:10298000804104F0F7FACDE9020106F1440151F863
:102990002400FDF7C2FE0746DDE90223FDF7F5FD41
:1029A000CDE90401FDF7E4FE06F1440141F82400FD
:1029B0000BF1010BBBF1200F8BDB0AF1010ABAF11D
:1029C000180F83DB43B0BDE8F08F00000000F84132
:1029D000FEB504460D46A08A00F40060061186F09C
:1029E000800694F86A1001F03F00FDF73DFE00906C
:1029F00028490098FDF7D8FE05D24FF08541009890
:102A0000FDF734FC00904FF083410098FDF766FC21
:102A10000090B4F86A10C1F38410FDF725FE019010
:102A20001D490198FDF7C0FE05D24FF08441019881
:102A3000FDF71CFC01904FF080410198FDF74EFC22
:102A40000190B4F86A10C80AFDF70EFE0290124910
:102A50000298FDF7A9FE05D24FF084410298FDF7D8
:102A600005FC02904FF082410298FDF737FC02907E
:102A700085F8256042F650200099415142F65021D8
:102A800029440198486042F6502129440298886000
:102A9000FEBD00000000F841000070412DE9F04F3C
:102AA0008BB004460D46B4F840001B2101EB1030FA
:102AB0000490B4F87400C0F30900ADF81C00BDF92F
:102AC0001C00B0F5007F06DBBDF81C00A0F580609F
:102AD00000B2ADF81C00B4F87400800AADF81E0016
:102AE000BDF91E001F2805DDBDF81E00403800B2EC
:102AF000ADF81E00BDF81E00BDF81C10084400B261
:102B0000ADF81E00B4F87210C1F30900FDF7ACFD7A
:102B100008905E490898FDF747FE05D24FF08941BD
:102B20000898FDF7A3FB08900498FDF7BCFD02464A
:102B30000B46CDE9000100204FF0804104F01AFA65
:102B4000CDE902010898FDF7E8FD0746DDE902231B
:102B5000FDF71BFD8246FDF70BFE0890B4F87210DE
:102B6000880AFDF781FD099049490998FDF71CFE87
:102B700005D24FF085410998FDF778FB09904FF099
:102B800086410998FDF7AAFB80464FF07E51FDF77C
:102B90001BFB07460899FDF76FFB099094F8760038
:102BA000FDF762FD05903B490598FDF7FDFD05D257
:102BB0004FF087410598FDF759FB059094F8700098
:102BC000C0F3031000F108063046FDF76CFD8246A5
:102BD00052460B4600204FF0804104F0CBF9CDE97E
:102BE00000010598FDF799FD0746DDE90023FDF793
:102BF000CCFCCDE90201FDF7BBFD2862B4F87610EC
:102C0000080AFDF731FD069022490698FDF7CCFD34
:102C100005D24FF087410698FDF728FB0690B4F8DF
:102C20007000C0F303294846FDF73DFD02460B4600
:102C3000CDE9000100204FF0804104F09BF982466D
:102C40008B460698FDF769FD52465B46CDE90201C9
:102C5000FDF79BFC0746FDF78BFDE86142F644203B
:102C60000899415142F64421294409984860BDF829
:102C70001C1042F64C204153BDF81E0042F64C2178
:102C8000294448800BB0BDE8F08F00000080FF436E
:102C90000000F8410000FE422DE9F04782460D4653
:102CA00000240027A046A14600BF0DE04FF6FF70AC
:102CB00042F65C21294421F8140042F66621294499
:102CC00021F81400601C84B2052CEFDB00241EE008
:102CD00004F140003AF8100038B942F65C2028446C
:102CE00020F81740781C87B20FE004F140001AF872
:102CF000100000F0010040B142F66620284420F8A0
:102D0000184008F101001FFA80F8601C84B2B4F585
:102D1000407F04DA052F02DAB8F1050FD8DB042F63
:102D200002DD6FF0020964E0B8F1040F02DD6FF01C
:102D300003095EE007EB0800042802DD6FF00409D8
:102D400057E0002419E0661C13E042F65C222A4496
:102D500032F8161042F65C222A4432F81400FEF7CC
:102D60000FFD8146B9F1000F02D04846BDE8F0875B
:102D7000761CBE42E9DB601C84B2BC42E3DB00246B
:102D800018E0661C12E042F666222A4432F8161059
:102D900042F666222A4432F81400FEF7F1FC81461E
:102DA000B9F1000F01D04846E0E7761C4645EADB62
:102DB000601C84B24445E4DB002418E0002612E0E5
:102DC00042F666222A4432F8161042F65C222A4461
:102DD00032F81400FEF7D4FC8146B9F1000F01D09F
:102DE0004846C3E7761C4645EADB601C84B2BC4219
:102DF000E4DB4846BAE70246B2F8603018B2B0F5F4
:102E0000004F00DB00B288827047000070B50446B6
:102E10000D46B4F87810080AFDF726FC0646094965
:102E20003046FDF7C1FC05D24FF087413046FDF733
:102E30001DFA06464FF08C413046FDF74FFA064624
:102E4000AE6270BD0000FE422DE9F04705460C461B
:102E50007A35A888C0F3013000EB80004FEA4008C3
:102E60006FF02700A0870021E1872879C0F30311C4
:102E700040200153A888C0F3032142200153402081
:102E8000005B00FB08F001B240200153B4F9401090
:102E9000B4F9420000FB081001B242200153287926
:102EA00000F00F0000F10807012000FA07F728786A
:102EB000FDF7DAFBE0622988080AFDF7D5FB2063FD
:102EC000A878FDF7D1FB606369887A3D080AFDF7B1
:102ED000CBFBA063002623E004F12C0151F826006F
:102EE0001149FDF761FC0BD204F12C0151F82600C9
:102EF0004FF08741FDF7BAF904F12C0141F82600A3
:102F00003846FDF7B1FB814604F12C0151F826004B
:102F10004946FDF7E3F904F12C0141F82600761C3F
:102F2000042ED9DBBDE8F0870000FE422DE9F04F0A
:102F30008DB006460D460024B6F86C00000A4FFA24
:102F400080FABAF17F0F01DD4FFA8AFA8DF830A0CE
:102F500096F86C004FFA80F8B8F17F0F01DD4FFA58
:102F600088F88DF83280B6F86E00000A47B27F2FDD
:102F700000DD7FB28DF8317096F86E004FFA80F95F
:102F8000B9F17F0F01DD4FFA89F98DF8339096F88A
:102F90007000C0F3031008300B9096F8700000F03A
:102FA0000F000A904FF0000B98E0002008908FE08F
:102FB0002021089801FB0B042046E31704EBD363A0
:102FC0005B1121464FEAE47C04EB9C6C4FEAAC1C9D
:102FD000A3EB4C03224604EBD27C4FEA6C0CA4EB2F
:102FE0004C0C4FF0020E0EFB03C3DBB209934031D1
:102FF00016F81110C1F34200FDF736FB41F24421EF
:10300000294441F8240041F24421294451F8240084
:103010003649FDF7C9FB0DD241F24421294451F84C
:1030200024004FF08241FDF721F941F24421294467
:1030300041F8240001220A9902FA01F0FDF714FB7D
:10304000079041F24420284450F824100798FDF7D7
:1030500013F941F24421294441F824000CAA0999AA
:103060005056FDF701FB079041F24420284450F8E8
:1030700024100798FDF7A8F841F24421294441F8AB
:1030800024000B98FDF70FFB02460B46CDE900012B
:1030900000204FF0804103F06DFFCDE9040141F2C3
:1030A0004421294451F82400FDF737FBCDE9020102
:1030B000DDE90423FDF769FACDE90601FDF758FBC8
:1030C00041F24421294441F824000898401C08900A
:1030D00008982028FFF66CAF0BF1010BBBF1180F1D
:1030E000FFF663AF0DB0BDE8F08F00000000404078
:1030F0002DE9F04F8DB005460E460024B5F8680066
:103100004FEA103ABAF1070F03DDAAF110004FFAA7
:1031100080FA8DF82CA0B5F86800C0F30328B8F148
:10312000070F03DDA8F110004FFA80F88DF82E800C
:1031300095F86800C0F30317072F02DDA7F1100010
:1031400047B28DF82D7095F8680000F00F09B9F1BD
:10315000070F03DDA9F110004FFA80F98DF82F90C9
:10316000B5F87000C0F303200A904FF0000B57E051
:10317000002008904FE02021089801FB0B04204616
:10318000E31704EBD3635B1121464FEAE47C04EBC5
:103190009C6C4FEAAC1CA3EB4C03224604EBD27CA4
:1031A0004FEA6C0CA4EB4C0C4FF0020E0EFB03C369
:1031B000DBB209930BA9099BC856FDF755FA41F6F6
:1031C0004461314441F824000A98FDF76CFA024644
:1031D0000B46CDE9000100204FF0804103F0CAFE0C
:1031E000CDE9040141F64461314451F82400FDF772
:1031F00094FACDE90201DDE90423FDF7C6F9CDE932
:103200000601FDF7B5FA41F64461314441F8240066
:103210000898401C089008982028ACDB0BF1010BA3
:10322000BBF1180FA4DB0DB0BDE8F08F2DE9F04322
:10323000B8B00246002092F8203003F00F0C92F84C
:103240002030C3F30317138CC3F30326538C1DB232
:10325000B5F5004F00DB2DB2002328E0980003F104
:10326000120412F8144004F00F040DF1800848F81D
:10327000204003F1120412F81440C4F303180DF1B6
:103280008009441C49F8248003F1120432F81440E8
:10329000C4F30328841C49F8248003F1120432F893
:1032A00014404FEA1438C41C49F824805B1C062BD8
:1032B000D4DB00230DE020AC54F82340072C07DDBD
:1032C00020AC54F82340103C0DF1800848F823400E
:1032D0005B1C182BEFDB002324E0980003F118049B
:1032E00012F8144004F00F044DF8204003F11804C4
:1032F00012F81440C4F30318441C4DF8248003F161
:10330000180432F81440C4F30328841C4DF82480B8
:1033100003F1180432F814404FEA1438C41C4DF875
:1033200024805B1C082BD8DB002309E05DF82340D8
:10333000072C04DD5DF82340103C4DF823405B1C56
:10334000202BF3DB00234CE0002447E04FF0200863
:1033500008FB034000F1400832F818804FEA982932
:1033600001F6444828F8109038F91080B8F11F0F82
:103370000BDD01F6444838F81080A8F140080FFA38
:1033800088F901F6444828F8109001F6444838F8C6
:1033900010804FF0010909FA0CF908FB09F80FFA3F
:1033A00088F901F6444828F810900DF1800838F8A3
:1033B000238008FA06F808EB05093DF8248008FA8E
:1033C00007F8C14401F6444838F81080C8440FFAA1
:1033D00088F901F6444828F81090641C202CB5DBCD
:1033E0005B1C182BB0DB38B0BDE8F0832DE9F04F43
:1033F00087B004460D46B4F86410880AFDF734F926
:1034000082462B495046FDF7CFF905D24FF0854152
:103410005046FCF72BFF82464FF08B415046FCF79D
:103420005DFF8246B4F86410C1F30900FDF71CF992
:10343000064620493046FDF7B7F905D24FF08941DD
:103440003046FCF713FF06464FF082413046FCF74A
:1034500045FF0646B4F862000FFA80FB0022164BC7
:1034600010464FF0804103F085FD07468846218CC9
:1034700001F47040FDF706F93A464346CDE90001F4
:10348000FDF783F800220D4BCDE90201FCF764FF44
:10349000CDE90401FDF76CF98146C5F804A0AE60E2
:1034A000A5F80CB0C5F8109007B0BDE8F08F00008B
:1034B0000000F8410080FF4300002C400000204045
:1034C000B0F87030C3F3013281F824207047000057
:1034D00070B504460D4694F87800FDF7C5F8064629
:1034E00009493046FDF760F905D24FF08741304673
:1034F000FCF7BCFE06464FF084413046FCF7EEFE7A
:103500000646AE6170BD00000000FE4230B50A46BE
:10351000B0F8664021B2B0F86640210A7F2902DD8A
:10352000A1F5807421B24C0121B290F86630A3F568
:1035300080744FF40055C5EB44131180538030BDA7
:1035400000BFFEE72DE9F04105460F46002439E0B3
:10355000012001F051F84FF400411C4802F086FDB3
:103560000026B04621E0012001F046F84FF400713A
:10357000164802F07BFD012001F03EF87006060EB1
:103580004FF40041114802F0C9FD08B1701CC6B2E9
:10359000012001F031F84FF400710C4802F064FD95
:1035A000012001F029F808F10108B8F1080FDADB71
:1035B000681EA04202D100F0C1F801E000F05EF800
:1035C0003E55641CAC42C3DBBDE8F08100080140FD
:1035D00010B54FF40041134802F048FD012001F0FE
:1035E0000BF84FF400710F4802F040FD012001F08C
:1035F00003F84FF400410B4802F090FD08B9002495
:1036000000E00124012000F0F7FF4FF400710548AD
:1036100002F02AFD4FF40041024802F025FD204649
:1036200010BD00000008014010B54FF400711248B1
:1036300002F01AFD012000F0DFFF4FF400410E48B8
:1036400002F014FD012000F0D7FF4FF400710A488A
:1036500002F00CFD012000F0CFFF4FF400410648BE
:1036600002F002FD012000F0C7FF4FF40071024894
:1036700002F0FAFC10BD00000008014010B54FF444
:1036800000410F4802F0F0FC012000F0B5FF4FF4BC
:1036900000710B4802F0EAFC012000F0ADFF0120B0
:1036A00000F0AAFF4FF40071054802F0DDFC012094
:1036B00000F0A2FF4FF40041014802F0D7FC10BD1A
:1036C000000801402DE9F041044601272546002667
:1036D00026E0012000F090FF05F0800028B14FF4B3
:1036E0000041154802F0C2FC04E04FF400411248CA
:1036F00002F0BAFC012000F07FFF4FF400710E4889
:1037000002F0B4FC012000F077FF012000F074FF0C
:103710004FF40071084802F0A7FC680045B2761C1F
:10372000082ED6DB012000F067FFFFF751FF0746A8
:103730003846BDE8F08100000008014010B54FF4A4
:1037400000410F4802F092FC012000F055FF4FF4B9
:1037500000710B4802F08AFC012000F04DFF0120AF
:1037600000F04AFF4FF40071054802F07DFC012093
:1037700000F042FF4FF40041014802F077FC10BD19
:103780000008014010B54FF400410F4802F06EFCF4
:103790004FF400710C4802F069FC012000F02CFF8E
:1037A000012000F029FF4FF40041074802F05CFCC3
:1037B000012000F021FF4FF40071034802F054FC97
:1037C000012000F019FF10BD0008014010B54FF4B2
:1037D00000710E4802F048FC4FF400410B4802F023
:1037E00043FC012000F008FF4FF40071074802F08D
:1037F0003DFC012000F000FF4FF40041034802F0BF
:1038000035FC012000F0F8FE10BD0000000801406A
:103810000821094A1160042111600903074A116156
:10382000074908604FF40041516111610821024AC3
:10383000121F116070470000140801400010014081
:103840000C0C01402DE9F04704460D4616461F4674
:10385000DDF820A03B4632462946204600F044F9D8
:10386000A84618E0A14612E004200D49086008208F
:10387000091D08600B48C0F800A04FF400400A4939
:103880004861086108200649086009F10109B1454D
:10389000EAD908F10108B845E4D9BDE8F08700008D
:1038A000100801400C0C0140001001402DE9F041CE
:1038B00006460F4600240025A0463946304600F053
:1038C00053F82E20FFF7A4FF4FF0883023490860FB
:1038D000091D0860002021490C310860042020499E
:1038E000086040031F49086108201D49091D086040
:1038F000C0021C49486119480830006884B24FF47E
:1039000080400861486115480830006884B24FF46F
:103910008040086148611148083000681FFA80F84B
:103920004FF48040086108200D4908604FF03330A3
:103930000A490860091D08604FF6FF7007490C31FD
:103940000860E5B200EA0525E012C002A91240EACB
:10395000411040EAE820BDE8F0810000000C014081
:10396000100801400010014010B504460B462A2003
:10397000FFF74EFF0420224908600820091D086057
:10398000200A204908604FF400401F49486108613F
:1039900008201B490860042008600820091D0860F1
:1039A000E0B2184908604FF40040174948610861C7
:1039B0000820134908602B20FFF72AFF0420104934
:1039C00008600820091D0860180A0E4908604FF4B5
:1039D00000400D4948610861082009490860042039
:1039E00008600820091D0860D8B2064908604FF435
:1039F000004005494861086108200149086010BD80
:103A0000100801400C0C0140001001402DE9F84164
:103A100005460E4614461F46DDF81C8009E0CDF829
:103A2000008022783B463146284600F007F80835EA
:103A3000641C20780028F2D1BDE8F8812DE9F04F10
:103A40008046894614469A46A4F12000C4B209F182
:103A50000F0308F107024946404600F045F80026EA
:103A600036E0274606EB07171B4810F807B000257D
:103A70002BE08020284100EA0B0080212941884268
:103A800011D10420154908600820091D0860144858
:103A9000C0F800A04FF400401249486108610820B6
:103AA0000E49086010E004200C4908600820091D38
:103AB00008600B49099808604FF4004009494861C3
:103AC00008610820054908606D1C082DD1D3761CBB
:103AD000102EC6D3BDE8F08F2A97000810080140C9
:103AE0000C0C01400010014070B506460C4615460E
:103AF0002A20FFF78DFE0420434908600820091D95
:103B00000860300A414908604FF40040404948616C
:103B1000086108203C490860042008600820091D4D
:103B20000860F0B2394908604FF4004038494861F4
:103B30000861082034490860042008600820091D35
:103B40000860280A314908604FF400403049486154
:103B5000086108202C490860042008600820091D1D
:103B60000860E8B2294908604FF4004028494861DC
:103B700008610820244908602B20FFF749FE042033
:103B8000214908600820091D0860200A1F490860B3
:103B90004FF400401E494861086108201A49086036
:103BA000042008600820091D0860E0B21749086079
:103BB0004FF4004016494861086108201249086026
:103BC000042008600820091D0860180A0F490860D1
:103BD0004FF400400E494861086108200A49086016
:103BE000042008600820091D0860D8B20749086051
:103BF0004FF4004006494861086108200249086006
:103C00002C20FFF705FE70BD100801400C0C014090
:103C10000010014000B53620FFF7FAFD04204D49A1
:103C200008600820091D086068204B4908604FF4AF
:103C300000404A49486108610820464908602A2036
:103C4000FFF7E6FD0420434908600820091D0860CD
:103C50000020414908604FF4004040494861086134
:103C600008203C490860042008600820091D0860FD
:103C70000020394908604FF4004038494861086124
:103C8000082034490860042008600820091D0860E5
:103C9000012031490860C0033049486108610820AB
:103CA0002C490860042008600820091D08603F2096
:103CB000294908604FF400402849486108610820FC
:103CC000244908602B20FFF7A3FD04202149086048
:103CD0000820091D086000201F4908604FF40040BB
:103CE0001E494861086108201A49086004200860DC
:103CF0000820091D08600020174908604FF40040A3
:103D000016494861086108201249086004200860CB
:103D10000820091D086000200F4908604FF400408A
:103D20000E494861086108200A49086004200860BB
:103D30000820091D0860EF20074908604FF4004083
:103D40000649486108610820024908602C20FFF7F5
:103D50005FFD00BD100801400C0C01400010014047
:103D600070B505460C4623464FF450724FF410517F
:103D7000284600F09FF970BD70B505460E462846EE
:103D8000FDF71BFD0446002C38D131462846FFF7CD
:103D9000BDFB31462846FFF729FB31462846FFF791
:103DA0002AF831462846FFF793FB31462846FFF7AD
:103DB00087FB31462846FFF729F831462846FFF7AA
:103DC00043F831462846FEF7EDFC31462846FFF71A
:103DD0002DFA31462846FFF7A9F831462846FFF765
:103DE00087F931462846FEF759FE31462846FEF748
:103DF000EFFD31462846FEF74FFF0446204670BDD2
:103E00002DE9FC4180460D460127012400260027AC
:103E10000EE06B460122D103404600F04BF9044608
:103E200014B12046BDE8FC81BDF8000000F0080791
:103E3000002FEED026E030224FF40041404600F043
:103E4000B3F90446601C08B92046EBE72B464FF453
:103E500050724FF48061404600F02CF904460CB1DA
:103E60002046DFE76B460122D103404600F022F9ED
:103E700004460CB12046D5E7BDF8000000F0080765
:103E8000701CC6B20FB1052ED5DB042E02DD6FF01B
:103E90000700C7E701AB012248F20D01404600F0E0
:103EA00009F90446BDF80400A5F88006BDF8000035
:103EB00000F00100A5F882060CB12046B2E7B5F883
:103EC0008206AFE72DE9F04F89B081460C462146C6
:103ED000484600F073F80690B9F84006FCF7CDFBB1
:103EE000079032490798FCF75FFC05D24FF08F41ED
:103EF0000798FCF7BBF90790B9F80006FCF7BDFB83
:103F000082462A495046FCF74FFC05D24FF08F41BC
:103F10005046FCF7ABF982460022254B1046590368
:103F200003F028F80746884621690798FCF7A4F9AA
:103F300051460190FCF748F9014602900798FCF7BA
:103F4000CDF90390FCF7E9FB3A464346CDE904017D
:103F5000FCF7A9FA0546FCF70BFC8246A089FCF7A2
:103F60008CFB804613490698FCF780F90590616840
:103F7000FCF782F907464FF07E51FCF725F906461B
:103F800031465046FCF7AAF905464146FCF76EF962
:103F900083465846A168FCF7A1F905460649FCF797
:103FA00013F98346584609B0BDE8F08F00FEFF467E
:103FB00000003240333353400000C8412DE9F04F38
:103FC00087B005460C46B5F85406FCF756FB064686
:103FD00028493046FCF7E8FB05D24FF08F413046C8
:103FE000FCF744F90646B5F88006C0F3812A50462E
:103FF000FCF748FB07463A460B4600204FF080414D
:1040000002F0B8FFCDE9020194F82400FCF74BFB65
:1040100007463A460B4600204FF0804102F0AAFFC7
:10402000CDE90001DDE90223FCF7AFFACDE9040197
:10403000FCF79EFB8146B4F90000FCF715FB0590E8
:10404000B4F90200FCF710FB834631464846FCF702
:1040500013F959460490FCF709F980460599FCF7D5
:104060003DF907460449FCF7AFF80646304607B06D
:10407000BDE8F08F00FEFF463333534010B54FF4D8
:104080000073032210210A4801F0F2FF4FF40043AD
:1040900003221021064801F0EBFF4FF400710448A1
:1040A00001F0E4FF4FF40041014801F0DFFF10BDD3
:1040B000000801402DE9FF4FADF2846D81460D46A9
:1040C00016460024A046A2460020CDF880064FF4F4
:1040D000D0616846FCF761F8DDF890B64FEA4960B8
:1040E000070E28128DF88006E8B28DF88106FFF7DA
:1040F0006DFB012000F080FAFFF744FB012000F087
:104100007BFA78B2FFF7DEFA08B1012000E0002068
:1041100004462CB14FF0FF300DF2946DBDE8F08FE6
:104120009DF8801648B2FFF7CDFA08B1012000E0F3
:104130000020044614B14FF0FF30EDE79DF88116E2
:1041400048B2FFF7BFFA08B1012000E000200446A2
:1041500014B14FF0FF30DFE7FFF766FA47F00107D1
:1041600078B2FFF7AFFA044614B14FF0FF30D3E74F
:1041700070006946FFF7E6F9FFF728FB4FF00008EB
:104180000DE04FEA480A0AF101001DF800101DF881
:104190000A0001EB00202BF8020B08F10108B045E2
:1041A000EFDB0020B8E700002DE9F84307460D4695
:1041B00014464FF000080020009078064FEA10697E
:1041C00028128DF80000E8B28DF8010020128DF859
:1041D0000200E0B28DF80300FFF7F8FA012000F0CA
:1041E0000BFAFFF7CFFA4FFA89F0FFF76BFA804628
:1041F000B8F1000F02D00120BDE8F88300260CE0E2
:104200001DF8061048B2FFF75DFA8046B8F1000FBE
:1042100002D04FF0FF30EFE7761C042EF0DBFFF703
:10422000D5FA074B012229463846FFF743FF0448D9
:104230000088A04202D06FF00100DDE70020DBE73C
:10424000B4000020F8B506466B46012248F20D0185
:104250003046FFF72FFF054655B9BDF8000040F482
:104260008054224648F20D013046FFF79DFF054677
:104270002846F8BDF8B507460C466007850D6B4625
:10428000012248F20D013846FFF714FF064666B9D1
:10429000BDF800004FF67F4108400543AAB248F23E
:1042A0000D013846FFF780FF06463046F8BD00BFD7
:1042B000FEE770477047000010B51021054801F077
:1042C000D3FE062003F094FE1021024801F0CEFE3A
:1042D00010BD00000008014010B504462403FFF79C
:1042E000EBFF00F09BF810210B4801F0BDFE2020F1
:1042F00003F07EFEC4F3074003F07AFEC4F3072008
:1043000003F076FEE0B203F073FE1021024801F0E4
:10431000ADFE00F083F810BD0008014000B587B085
:1043200040F2026003F0C6FD40F20C6003F0C2FDF3
:10433000A02303221821174801F09AFE40230322EC
:104340000421144801F094FE102303221946114859
:1043500001F08EFE10210F4801F088FE0020019030
:104360004FF4827000900020029005904FF400708E
:10437000039010200690002004906946064803F040
:1043800061FE0721044803F027FE034803F02AFEDC
:1043900007B000BD00080140003001402DE9F041A8
:1043A00006460C4617461021104801F05DFE03201A
:1043B00003F01EFEC4F3074003F01AFEC4F3072007
:1043C00003F016FEE0B203F013FE002505E0FF2027
:1043D00003F00EFE7055681C85B2BD42F7DB10215C
:1043E000024801F043FEBDE8F081000000080140F2
:1043F00010B500241021084801F036FE052003F016
:10440000F7FDFF2003F0F4FD04461021024801F0FF
:104410002DFE204610BD00000008014010B500BF71
:10442000FFF7E6FF00F001000028F9D110BD000001
:104430002DE9F04781460F4616464FEA1738C7F375
:104440000B0ACAF58054A64200DC344644E04FEA29
:1044500008314FF480522248FFF7A0FF002508E002
:104460000AEB05001E49085CFF2800D003E0681C29
:1044700085B2A542F4DB00BFA54216DA4046FFF73D
:104480002BFF002507E019F8050005EB0A01144A87
:104490005054681C85B2A542F5DB4FEA08314FF451
:1044A00080520F4800F01EF804E022463946484684
:1044B00000F018F8A64200D10FE008F101084FF013
:1044C000000AA1442744301B86B2B6F5805F02DDA6
:1044D0004FF4805400E03446B9E700BFBDE8F087F0
:1044E000A80100202DE9F04107460E461446F0B21F
:1044F000C0F58075AC4200DC254612E02A46314604
:10450000384600F013F8AC4200D10BE02F442E44A3
:10451000601B84B2B4F5807F02DD4FF4807500E04B
:104520002546EBE700BFBDE8F08100002DE9F04132
:1045300006460C461746FFF7BFFE1021104801F053
:1045400093FD022003F054FDC4F3074003F050FD37
:10455000C4F3072003F04CFDE0B203F049FD002551
:1045600004E0705D03F044FD681C85B2BD42F8DBD9
:104570001021034801F07AFDFFF750FFBDE8F081FC
:10458000000801407047000010B51448006840F072
:1045900001001249086008464068114908400F4967
:1045A0004860084600680F4908400C490860084602
:1045B000006820F480200860084640680A490840E6
:1045C00006494860084600680649084003490860F3
:1045D0004FF41F00886003F0ABFE10BD00100240D6
:1045E0000C00FFE8FFFFF6FEFFFF00F710B504F038
:1045F000BDFD10BD00BFFEE7002100E0491C814267
:10460000FCDB7047490050EAC12018BF04204A0D66
:1046100018BF40F0010040F2FF72B2EB515F08BFDB
:1046200040F00200012808BF052070472DE9F04145
:104630004F1E00EBC7010446D1E9000115461E4696
:1046400037F006020DD02A463346FBF72CFF7F1EBB
:1046500004EBC703D3E90023FBF77EFE37F0060225
:10466000F1D1022F25D0042F13D0062F18BFBDE89B
:10467000F0812A463346FBF716FFD4E90A23FBF7FD
:104680006BFE2A463346FBF70EFFD4E90823FBF7FF
:1046900063FE2A463346FBF706FFD4E90623FBF701
:1046A0005BFE2A463346FBF7FEFED4E90423FBF704
:1046B00053FE2A463346FBF7F6FED4E90223FBF706
:1046C0004BFE2A463346FBF7EEFED4E90023BDE855
:1046D000F041FBF741BE000000221346104601499D
:1046E000FBF753BF0000F03FFBF736BE0022134636
:1046F00010461146FBF749BF40F2013200204FF04F
:10470000E041FCF710B90000024A00201107FCF755
:104710000AB9000001FDFFFF02E008C8121F08C12E
:10472000002AFAD170477047002001E001C1121F32
:10473000002AFBD170470000014908607047000063
:10474000A4010020816841F00801816000BF8168F8
:1047500001F008010029FAD1816841F0040181606B
:1047600000BF816801F004010029FAD1704730B51B
:10477000012902D002291AD10CE0C36A23F4700384
:10478000C362C36A541E4FF4700505EA0454234300
:10479000C3620DE0836B23F440138363836B541E69
:1047A0004FF4401505EA04542343836300E000BF3F
:1047B00000BF30BD21B1826842F40062826003E034
:1047C000826822F4006282607047000010B50446DF
:1047D0001348204430B1B0F5806F0CD0B0F5C05F05
:1047E0001BD111E040F2093003F084FB40F20930A4
:1047F00003F070FB12E040F20A3003F07BFB40F262
:104800000A3003F067FB09E040F20F3003F072FB5F
:1048100040F20F3003F05EFB00E000BF00BF10BDB0
:1048200000DCFEBF816841F480718160704781685F
:1048300001F0010119B9816841F0010181607047FF
:1048400072B101F001031BB1836843F480138360EC
:1048500001F0020393B1836843F4004383600DE0E9
:1048600001F001031BB1836823F48013836001F01E
:1048700002031BB1836823F400438360704701295E
:1048800002D0022910D107E0836823F460238360FB
:1048900083681343836008E0836823F4E043836004
:1048A00083681343836000E000BF00BF70470000CF
:1048B0000549096821F47021034A1160114609680D
:1048C000014311607047000004240140F0B51D460B
:1048D00006290CDA436B01EB81071F26BE40B34368
:1048E00001EB810602FA06F63343436322E00C290A
:1048F0000EDA036B8E1F06EB86071F26BE40B343FE
:104900008E1F06EB860602FA06F63343036311E0B8
:1049100010290FDAC36AA1F10C0606EB86071F26E1
:10492000BE40B343A1F10C0606EB860602FA06F67A
:104930003343C3620A2A0CDA046902EB42070726F2
:10494000BE40B44302EB420605FA06F63443046166
:1049500011E0122A0FDAC468A2F10A0606EB460734
:104960000726BE40B443A2F10A0606EB460605FA46
:1049700006F63443C460F0BD01F001021AB182684A
:1049800042F48002826001F002021AB1826842F4AD
:10499000001282607047AAB101F480731BB14368B2
:1049A00043F48073436001F480631BB1436843F4B4
:1049B0008063436001F00203CBB1836843F00203DC
:1049C000836014E001F480731BB1436823F48073A7
:1049D000436001F480631BB1436823F48063436048
:1049E00001F002031BB1836823F002038360704768
:1049F0002DE9F04781460D46144628480078C0B995
:104A00000120264908702648056026488068264906
:104A1000086008460068A04201D9084604602248A0
:104A2000008883B21E4881210268484604F056F887
:104A300032E01A48007801281FD11A484668806879
:104A400019490968471A4FF000084246394630466E
:104A500000F02EF81548124908600D201249086030
:104A600003200E4908701048008883B20C48812149
:104A70000268484604F032F80EE00848007803283F
:104A80000AD10020054908701F23064A0221484622
:104A900003F0AEFFBDE8F08700BFFBE76201002036
:104AA0006401002058440020680100207844002060
:104AB00010B5044B044C23602346586099601A7368
:104AC00010BD00005553425378440020F0B5ADF5B9
:104AD000257D002776A103C9CDE908011822764972
:104AE00002A8FBF741FB42262820CDF83600C10082
:104AF000CDF83A10F021CDF83E1001210AA84183EB
:104B0000102181830321CDF84610DDF83E10DDF839
:104B10003A2051430AAA928B01FB02F0C11700EB25
:104B20005171CA10CDF84A2044F64250ADF8280021
:104B3000DDF84A003044CDF82A00CDF832604FF459
:104B40007840CDF85E004FF4FC61CDF862101F2173
:104B5000CDF8661032E0032208A91BA800F0B8FDCA
:104B60000746FFB91BA800F075FD9DF821003038FD
:104B70009DF82010303901EB810100EB4100401C11
:104B8000C7B20A2097FBF0F03030C0B28DF8200099
:104B90000A2097FBF0F100FB11703030C0B28DF8A5
:104BA00021000BE0062208A91BA800F091FD074692
:104BB00007B904E001200DF5257DF0BDCBE700BF6E
:104BC00001AB32460AA91BA800F08CFE0746EF2372
:104BD00040F23F1200210846FEF786FF0026EF2430
:104BE00023E0002509E0A1B2A8B2FEF75FFE71192B
:104BF000324A22F81100681C05B2B5F5A07FF2DB3D
:104C0000204604EBD0714910A4EB410149B901AB36
:104C10004FF4A06229491BA800F064FE0746002655
:104C200001E04FF4A076601E04B2E02CD9DA08A9A6
:104C300002A8FBF7BDFA00204FF6FF7302AAE0219D
:104C40000090FEF7E3FEEF2340F23F1200210846FA
:104C5000FEF74AFF0026DF2423E0002509E0A1B289
:104C6000A8B2FEF723FE7119144A22F81100681C3D
:104C700005B2B5F5A07FF2DB204604EBD0714910F8
:104C8000A4EB410149B901AB4FF4A0620B491BA849
:104C900000F028FE0746002601E04FF4A076601ED3
:104CA00004B2002CD9DA1BA800F0D4FC384682E705
:104CB00030302E626D7000002CA20008A811002078
:104CC00070B504460D4600202071401EE062294662
:104CD000204602F00FF808B1032070BD94F82E12A0
:104CE00094F82F0241EA00204AF65521884201D06B
:104CF0000220F2E794F86900010694F8680041EA9E
:104D0000004194F8670041EA002094F866100843D7
:104D100020F07F400D49884201D10020DDE794F862
:104D20008500010694F8840041EA004194F883006C
:104D300041EA002094F88210084320F07F400349A4
:104D4000884201D10020C8E70120C6E7464154004F
:104D5000024600E0521C107810B110788842F9D158
:104D60001078704770B503460D46586A021D680AF0
:104D70001E68B678B0FBF6F400BF02CA09B900207D
:104D800070BD8C4200D202E0641A121DF5E700BF2C
:104D900010682044F4E70246891E5069801E88424C
:104DA00001D8002070479378906A01FB0300F9E76F
:104DB0002DE9F04704468946B9F1000F06D1E768AE
:104DC00017B16069B84215D8012713E0494620465B
:104DD00001F0B0F80646022E02D20120BDE8F087AD
:104DE000701C08B93046F9E76069B04201D9304615
:104DF000F4E74F463D4600BF6D1C6069A84204D8E9
:104E00000225BD4201D90020E8E72946204601F0ED
:104E100091F8064606B909E0701C08B1012E01D1CF
:104E20003046DBE7BD42E7D10020D7E700BF6FF097
:104E300070422946204602F069FF8046B8F1000F13
:104E400008D1B9F1000F05D02A464946204602F0A4
:104E50005DFF8046B8F1000F0BD1E5602069401C72
:104E600078B12069401E2061607940F001006071D6
:104E700007E0B8F1010F02D14FF0FF3000E0012050
:104E800005462846AAE700002DE9F35F0198D0F80F
:104E9000009001E009F1010999F800002F28F9D0EC
:104EA00099F800005C28F5D0009886690B22202133
:104EB000304601F015FF00252F46AB464FF0080A9B
:104EC00000BF58460BF1010B19F80040202C03DD00
:104ED0002F2C01D05C2C00D153E02E2C01D0574553
:104EE0000DD3BAF1080F01D12E2C02D00620BDE857
:104EF000FC9F08274FF00B0AA806050EE1E7802C5F
:104F000001DB45F00305812C20DBFE2C1EDC58461E
:104F10000BF1010B19F80080B8F1400F02DBB8F17A
:104F20007E0F05DDB8F1800F06DBB8F1FE0F03DC64
:104F3000AAF10100B84201D80620D8E738467F1C04
:104F4000345438467F1C06F8008019E0214620A022
:104F5000FFF7FEFE08B10620C9E7412C04DB5A2CFE
:104F600002DC45F0020508E0612C06DB7A2C04DC4B
:104F700045F00105A4F12000C4B238467F1C34542A
:104F80009FE700BF09EB0B0101980160202C01DCB9
:104F9000042000E0002004460FB90620A7E730787F
:104FA000E52801D105203070BAF1080F01D1A8061B
:104FB000050E05F00300012801D144F0100405F0AE
:104FC0000C00042801D144F00804F47200208EE79C
:104FD000222A2B2C3A3B3C3D3E3F5B5D7C7F000010
:104FE000002109E0002201E0531C9AB244F6382364
:104FF0009A42F9DB4B1C99B28142F3DB70472DE9F1
:10500000F04104460E460021204600F0F9F805461E
:10501000EDB9002700BF2169206801F06BFE05464D
:1050200005B113E060690078E52802D06069007876
:1050300020B9781C0746B04201D107E000270121C2
:10504000204600F038F80546002DE4D000BF042DBE
:1050500000D107252846BDE8F0812DE9F04104463E
:105060000021204600F0CCF8054615B12846BDE8E1
:10507000F08100BF2169206801F03CFE054605B1C2
:1050800016E0666937780FB9042511E0F07A00F070
:10509000080030B90B223046A16901F001FE00B9C9
:1050A00006E00021204600F006F80546002DE1D07C
:1050B00000BF2846DBE72DE9F04104468846E0883A
:1050C000461CB0B208B1206910B90420BDE8F081D7
:1050D00006F00F0000286CD12069401C2061E068B8
:1050E00028B920680089B04263D80420EEE7206820
:1050F0008078401E00EA161000285AD1E168206826
:1051000000F018FF0546012D01D80220DEE7681CDB
:1051100008B90120DAE720684069A84243D8B8F10D
:10512000000F01D10420D1E7E1682068FFF740FEBD
:1051300005460DB90720C9E7012D01D10220C5E7B9
:10514000681C08B90120C1E7206803F026F808B1FF
:105150000120BBE7216801F130004FF4007200210B
:1051600001F0BEFD29462068FFF715FE2168C862E0
:1051700000270EE0012021680871206803F00DF877
:1051800008B10120A2E72068C06A401C2168C862FB
:105190007F1C20688078B842ECD82068C06AC01BA9
:1051A0002168C86200BFE56029462068FFF7F3FD6B
:1051B0002061E6802068303006F00F0100EB4110DE
:1051C0006061002082E770B5044601212046FFF7A8
:1051D00016FF054695B92169206801F08BFD05464B
:1051E00065B920220021606901F07AFD0B22D4E923
:1051F000050101F068FD012021680871284670BD95
:105200002DE9F04104460E46E680A568012D03D045
:1052100020684069A84202D80220BDE8F0812DB97B
:1052200020680078032801D12068456A45B92068C4
:105230000089B04201D80220EFE72068476A1EE0EB
:10524000206880784FEA001812E02946206800F0B4
:1052500071FE0546681C08B90120DEE7022D03D364
:1052600020684069A84201D80220D6E7A6EB0806CC
:105270004645EAD229462068FFF78DFD0746E560DE
:105280000FB90220C9E707EB161020612068303003
:1052900006F00F0100EB411060610020BDE7014600
:1052A000002201B901E0012200BF00BF0AB10120C4
:1052B00070470020FCE710B50346D3B931B101298E
:1052C0000FD0022904D0032910D106E000200FE0FE
:1052D0004FF40074148000200AE008241480002099
:1052E00006E04FF400441460002001E0042000BFF9
:1052F00000E0012010BD2DE9F04107460D4616469D
:105300001C464FF0000814B90420BDE8F08177B9BD
:1053100009E071024FF400722846FFF73FF8761C4F
:1053200005F50075641E002CF3D1A04602E04FF095
:10533000010800BF00BFB8F1000F01D10020E4E771
:105340000120E2E70146002070472DE9F0410746C1
:105350000D4616461C464FF0000814B90420BDE85F
:10536000F08177B909E071024FF400722846FFF727
:105370005FF8761C05F50075641E002CF3D1A0467D
:1053800002E04FF0010800BF00BFB8F1000F01D1EB
:105390000020E4E70120E2E770B505460C4621460F
:1053A000284600F0FBF808B900BFFEE704EB8400D4
:1053B000810005F10800405840F0010104EB840031
:1053C000820005F10800815070BD70B505460C469D
:1053D0002146284600F0E2F808B900BFFEE704EBDA
:1053E0008400810005F10800405840F0200104EBE2
:1053F0008400820005F10800815070BD70B504463C
:105400000D462946204600F0C9F808B900BFFEE75E
:1054100005EB8500810004F10800405820F00101EF
:1054200005EB8500820004F108008150002105EBA6
:105430008500820004F10800815005EB85008200A0
:1054400004F10C00815005EB8500820004F110008E
:10545000815005EB8500820004F1140081506068E2
:10546000AA000F2191400843606070BD2DE9F04112
:1054700004460D4616462946204600F08FF808B926
:1054800000BFFEE705EB8500820004F110003168E3
:10549000815005EB8500820004F11400B168815051
:1054A000308A81B205EB8500820004F10C00815046
:1054B00005EB8500810004F10800475827F47C576C
:1054C000F1687068084371690843074305EB85007C
:1054D000810004F108004750307E01280ED105EB11
:1054E0008500810004F10800405840F0400105EBC0
:1054F0008500820004F1080081500DE005EB850075
:10550000810004F10800405820F0400105EB8500BF
:10551000820004F108008150707E01280ED105EB55
:105520008500810004F10800405840F0800105EB3F
:105530008500820004F1080081500DE005EB850034
:10554000810004F10800405820F0800105EB85003F
:10555000820004F108008150B07E70B905EB85002F
:10556000810004F10800405820F0100105EB85008F
:10557000820004F1080081500DE005EB85008100F8
:1055800004F10800405840F0100105EB850082004E
:1055900004F108008150BDE8F081000002460120BE
:1055A000034B9A4202D1042900DD0020704700001D
:1055B0000004024010B54FF48070234908604FF496
:1055C000C06002F077FC40F2026002F073FC40F22F
:1055D000036002F06FFC40F2046002F06BFC40F2EA
:1055E000056002F067FC40F2066002F063FC0823ED
:1055F000032210211448143800F03AFD042303223A
:1056000010211148143800F033FD4FF400430322F9
:1056100010210E4800F02CFD4FF48043032210218E
:105620000A4800F025FD4FF480730322102106483C
:10563000143800F01DFD4FF6FF73032210210448BB
:1056400000F016FD10BD00001408014000100140DC
:10565000000C014070B50546284600F0EBF8044602
:1056600034B9284604F046F804460CB900202860F6
:10567000204670BDF7B582B016460398019001A888
:1056800000F0CEFC0546002D02DA0B2005B0F0BD7F
:105690000E4850F825400CB100202070029810B13F
:1056A0000020029908700949029841F825000298E3
:1056B00008B1012E01D00020E8E7002203A902A8CA
:1056C00000F00AFA07463846E0E700009C01002097
:1056D0002DE9F7438AB0054616461DB909200DB0DD
:1056E000BDE8F0830020286006F01F0626F00102C6
:1056F0000BA903A800F0F0F90746002F7ED1CDF8E2
:1057000024D003A80B9900F0CDFB0746089C0FB9E5
:1057100004B9062706F01C00002851D04FB1042F11
:1057200003D103A8FFF74FFD074646F00806089C83
:1057300009E0E07A00F0110008B1072703E006F065
:10574000040000B10827002F39D106F00800002816
:1057500035D000F063FC804684F80E804FEA1821B3
:10576000E1734FEA184121744FEA18616174002017
:10577000E072207700216177A177E17721460398D5
:1057800001F060F981460021204602F09AFC0120D8
:1057900003990871B9F1000F11D00398D0F82C804B
:1057A0004946039802F0C2FB074647B9A9F1010038
:1057B0000399C8604146039801F09CFA07460EE041
:1057C0006FB9E07A00F0100008B1042707E006F096
:1057D000020020B1E07A00F0010000B1072747B9CC
:1057E00006F0080008B146F020060398C06AE86198
:1057F0002C621FB9AE710020E87100E018E021466C
:10580000039801F01FF92861E07F0106A07F41EABB
:105810000041607F41EA0020217F0843E8600020CA
:10582000A860A8616862039828602868C088A8807A
:10583000384654E72DE9F0410446204603F05AFF6C
:105840000746002F4CD1A07900F02000002847D057
:10585000A07900F0400078B121684878012304F174
:105860002801A269FFF771FD10B10120BDE8F081A8
:10587000A07920F04000A071E169206801F03AFAB7
:105880000746002F2CD1256AE87A40F02000E87204
:10589000207B2877A089010A6977E068010CA97745
:1058A000E068010EE9772846216902F00AFC00F061
:1058B000B5FB0646AE75310AE975310C2976310E15
:1058C00069760020A8740021E974A07920F02000F6
:1058D000A071012021680871206802F0FAFB0746D8
:1058E0003846C3E72DE9FF4F83B0044615469B4673
:1058F000049801900020CBF80000204603F0FAFE47
:105900000290029818B1029807B0BDE8F08FE079D4
:1059100008B1E079F8E7A07900F0020008B90720A3
:10592000F2E7A0682844A168884200D20025C2E0BE
:105930002089C0F3080000286FD120688078401EBD
:10594000A16800EA512000F0FF0ABAF1000F2CD143
:10595000A06858B9D4F81080B8F1000F13D1002115
:105960002068FFF725FA804620610CE0606A28B1C4
:105970002046A168FFF7F6F9804604E061692068D7
:10598000FFF716FA8046B8F1000F00D196E0B8F1A3
:10599000010F02D10220E071B6E708F1010010B951
:1059A0000120E071B0E7C4F81480A07900F0400055
:1059B00078B121684878012304F12801A269FFF732
:1059C000C4FC10B10120E0719EE7A07920F04000F6
:1059D000A07161692068FFF7DEF9064616B902205A
:1059E000E07191E756444FEA5529B9F1000F2BD0E9
:1059F0000AEB090021688978884203D920688078F9
:105A0000A0EB0A09216848784B4632460199FFF716
:105A10009CFC18B10120E07176E729E0A069801BA9
:105A200048450ED2A069801B019A02EB40214FF439
:105A3000007204F1280001F046F9A07920F040003E
:105A4000A0714FEA49272AE0A069B0420FD0D4E9FB
:105A5000020188420BD2216848780123324604F1C2
:105A60002801FFF748FC10B10120E0714CE7A66166
:105A70002089C0F30800C0F50077AF4200D92F4657
:105A80002189C1F3080204F1280150183A4601990E
:105A900001F019F9A07940F04000A07100BF019811
:105AA00038440190A0683844A060DBF80000384416
:105AB000CBF80000ED1B002D7FF43AAF00BFD4E916
:105AC0000201884201D9A068E060A07940F020007E
:105AD000A071002018E700002DE9F74F88B00021E1
:105AE00008980160099800F09BFA07900798002831
:105AF00003DA0B200BB0BDE8F08FD549079851F8B9
:105B000020400CB90C20F5E708980460207878B1A3
:105B10006078FFF717FC804608F0010040B90A984A
:105B200020B108F0040008B10A20E3E70020E1E713
:105B300000202070079860706078FFF7B0FB804607
:105B400008F0010008B10320D4E70A9820B108F05A
:105B5000040008B10A20CDE7002739462046FFF7A8
:105B6000AFF80546012D01D06DBB2CE0002614E0F6
:105B700004F5F77101EB0610017951B1C17A0A06FB
:105B8000817A42EA0142417A42EA0121027A1143D2
:105B900000E000214DF82610761C042EE8D30026E4
:105BA00006B1761E00BF5DF8267027B13946204643
:105BB000FFF786F800E0022005461DB1701C06467E
:105BC0000428F0D300BF032D01D1012092E70DB1CD
:105BD0000D208FE73B20015D94F83C0041EA002056
:105BE000B0F5007F01D00D2084E74620015D94F8D8
:105BF000470041EA0029B9F1000F0ED194F857008F
:105C0000010694F8560041EA004194F8550041EA33
:105C1000002094F8541040EA0109C4F8189040207C
:105C2000005DE070E078012804D0E078022801D01F
:105C30000D205FE7E07809FB00F93D20005DA070D2
:105C4000A07818B1A078411E084008B10D2051E796
:105C50004120015D94F8420041EA00202081207A31
:105C600000F00F0008B10D2044E74320015D94F8D7
:105C7000440041EA002BBBF1000F0ED194F8530011
:105C8000010694F8520041EA004194F8510041EABB
:105C9000002094F8501040EA010B3E20015D94F87A
:105CA0003F0041EA00200490049808B90D2021E744
:105CB00004984844218900EB11100690069883450A
:105CC00001D20D2016E70698ABEB0000A178B0FBDF
:105CD000F1FABAF1000F01D10D200BE7012540F6D2
:105CE000F670824500D302254FF6F670824500D348
:105CF00003250AF102006061E761049838442062DC
:105D000006983844A062032D16D1208908B10D20D1
:105D1000F0E694F85F00010694F85E0041EA004165
:105D200094F85D0041EA002094F85C10084360623A
:105D300060698000059014E0208908B90D20D9E63B
:105D4000206A48446062022D02D16069400007E089
:105D5000207D00F00100616901EB410100EB510081
:105D60000590A169059800F2FF10B1EB502F01D208
:105D70000D20BFE64FF0FF302061E06080206071B1
:105D8000032D5AD194F8601094F8610041EA002084
:105D9000012852D1791C204600F0ACFFE8BB00205E
:105DA000607194F82E1294F82F0241EA00204AF60E
:105DB0005521884241D13320005D01063220005D2B
:105DC00041EA00413120005D41EA002094F83010A2
:105DD00008432049884230D194F81702010694F80C
:105DE000160241EA004194F8150241EA002094F8B5
:105DF00014120843184988421FD194F81B02010667
:105E000094F81A0241EA004194F8190241EA00208C
:105E100094F818120843206100E00EE094F81F0285
:105E2000010694F81E0241EA004194F81D0241EA7D
:105E3000002094F81C120843E06025700748008891
:105E4000401C80B205490880E080002052E6000036
:105E50009C0100205252614172724161A0010020F8
:105E6000002070472DE9F04106460F4614461D46B6
:105E700004FB05F082B239463046FEF78FFA002067
:105E8000BDE8F0812DE9F04106460F4614461D4657
:105E900004FB05F082B239463046FEF7C9FA00200D
:105EA000BDE8F0812DE9F3410446019800782F28E0
:105EB00003D0019800785C2802D10198401C019021
:105EC0000020A06001980078202807D200212046F9
:105ED000FFF796F905460020606128E000BF01A9A0
:105EE0002046FEF7D1FF054605B11FE02046FFF72B
:105EF000B4F80546A069C67A3DB1042D04D100BFAF
:105F000006F0040000B9052510E006F0040000B119
:105F10000CE06769F87A00F0100008B9052505E083
:105F20003946206800F08EFDA060D8E700BF284603
:105F3000BDE8FC812DE9F04105460C46022C02D358
:105F40006869A04202D80120BDE8F08128780128C4
:105F500004D002282CD003285AD13DE0274607EB75
:105F60005707286A00EB5721284600F0C3FE00B10E
:105F700050E0C7F3080105F1300010F801807F1CE4
:105F8000286A00EB5721284600F0B4FE00B141E03A
:105F9000C7F3080105F13000405C48EA002804F02E
:105FA000010010B14FEA1810CEE7C8F30B00CBE7A1
:105FB000286A00EB1421284600F09CFE00B129E07D
:105FC00040F2FF1000EA440105F130000E1830786D
:105FD000717840EA0120B7E7286A00EBD41128461F
:105FE00000F088FE00B115E040F2FF1000EA8401E5
:105FF00005F130000E18F0780006B17840EA014053
:10600000717840EA01203178084320F070409BE726
:10601000012099E700BF4FF0FF3095E7002070475F
:1060200070B502464FF0FF301568DDB1116800E031
:10603000491C0D78212D02D30D783A2DF8D10D7819
:106040003A2D0ED1146814F8015BA5F130030A2B28
:1060500006D28C4204D11BB918464D1C2946156046
:1060600070BD002000BFFBE74161704701617047D0
:10607000F0B5044616460025002201F00F0501F098
:10608000100707B1354300201EE0012787401F405D
:10609000C7B122684FEA800C0F2707FA0CF7BA4302
:1060A000870005FA07F73A43282904D101278740DA
:1060B0001F40676105E0482903D1012787401F4041
:1060C00027612260471CB8B20828DED3082022E0EE
:1060D000012787401F40E7B16268A0F108074FEA37
:1060E000870C0F2707FA0CF7BA43A0F10807BF0087
:1060F00005FA07F73A43282904D1012787401F40B2
:10610000676105E0482903D1012787401F402761C7
:106110006260471CB8B21028DAD3F0BD024690681E
:10612000084008B1012070470020FCE7F0B50A469E
:10613000002300240021002500F00046B6F1004FA6
:1061400002D11D4EF16901E01B4E7168C0F3034599
:1061500083B200F44016B6F5401F08D121F07061FB
:10616000154E766826F07066134F7E6012E000F4DC
:106170008016B6F5801F06D1032606FA05F4A14362
:1061800041F0706106E0460D360103FA06F6B143B0
:1061900041F0706122B1460D360103FA06F6314333
:1061A00000F00046B6F1004F02D1034EF16101E06C
:1061B000014E7160F0BD00000000014010B50520E7
:1061C000FEF70EFFCF20FDF723FB0420FE490860F9
:1061D0000820091D08600020FC4908604FF40040B9
:1061E000FB49486108610820F749086004200860FD
:1061F0000820091D08608120F44908604FF4004020
:10620000F349486108610820EF49086004200860EC
:106210000820091D08603020EC4908604FF4004058
:10622000EB49486108610820E74908600520FEF74E
:10623000D7FEED20FDF7ECFA0420E34908600820C2
:10624000091D08606420E14908604FF40040E049FE
:10625000486108610820DC490860042008600820C3
:10626000091D08600320D94908604FF40040D8494F
:10627000486108610820D4490860042008600820AB
:10628000091D08601220D14908604FF40040D04930
:10629000486108610820CC49086004200860082093
:1062A000091D08608120C94908604FF40040C849B1
:1062B000486108610820C44908600520FEF790FE87
:1062C000E820FDF7A5FA0420BF4908600820091D51
:1062D00008608520BD4908604FF40040BC49486112
:1062E00008610820B8490860042008600820091DDA
:1062F00008601020B5490860C002B54948610861CE
:106300000820B1490860042008600820091D0860C1
:106310007820AE4908604FF40040AD4948610861FB
:106320000820A94908600520FEF75AFECB20FDF79A
:106330006FFA0420A44908600820091D086039206C
:10634000A24908604FF40040A14948610861082053
:106350009D490860042008600820091D08602C2061
:106360009A4908604FF40040994948610861082043
:1063700095490860042008600820091D0860002075
:10638000924908604FF40040914948610861082033
:106390008D490860042008600820091D0860342029
:1063A0008A4908604FF40040894948610861082023
:1063B00085490860042008600820091D0860022043
:1063C00082490860800382494861086108207E494B
:1063D00008600520FEF704FEF720FDF719FA0420F7
:1063E000794908600820091D086020207749086065
:1063F00080027749486108610820734908600520D8
:10640000FEF7EEFDEA20FDF703FA04206E4908606E
:106410000820091D086000206C4908604FF4004006
:106420006B494861086108206749086004200860DA
:106430000820091D08600020644908604FF40040EE
:1064400063494861086108205F4908600520FEF73C
:10645000C7FDB120FDF7DCF904205B490860082086
:10646000091D08600020594908604FF40040584950
:106470004861086108205449086004200860082029
:10648000091D08601B20514908604FF40040504925
:106490004861086108204C4908600520FEF7A0FD0E
:1064A000B620FDF7B5F90420474908600820091D0A
:1064B00008600A20454908604FF40040444948619B
:1064C0000861082040490860042008600820091D70
:1064D0000860A2203D4908604FF400403C494861F3
:1064E00008610820384908600520FEF779FDC020C2
:1064F000FDF78EF90420344908600820091D086062
:106500003520324908604FF4004031494861086144
:1065100008202D4908600520FEF762FDC120FDF727
:1065200077F90420284908600820091D0860112017
:10653000264908604FF40040254948610861082059
:1065400021490860C520FDF763F904201E49086051
:106550000820091D086045201C4908604FF40040D0
:106560001B49486108610820174908600420086039
:106570000820091D08604520144908604FF40040B8
:1065800013494861086108200F490860C720FDF7DA
:106590003FF904200C4908600820091D0860A2206A
:1065A0000A4908604FF40040094948610861082021
:1065B00005490860F220FDF72BF904200249086024
:1065C0000820091D086005E0100801400C0C01407E
:1065D000001001400020FE4908604FF40040FD49D2
:1065E000486108610820FC4908602620FDF710F981
:1065F0000420F94908600820091D08600120F449B9
:106600000860C003F349486108610820F249086046
:106610000520FEF7E5FCE020FDF7FAF80420EE493E
:1066200008600820091D08600F20E94908604FF440
:106630000040E849486108610820E74908600420F3
:1066400008600820091D08602620E14908604FF411
:106650000040E049486108610820DF4908600420E3
:1066600008600820091D08602420D94908604FF4FB
:106670000040D849486108610820D74908600420D3
:1066800008600820091D08600B20D14908604FF4FC
:106690000040D049486108610820CF4908600420C3
:1066A00008600820091D08600E20C94908604FF4E1
:1066B0000040C849486108610820C74908600420B3
:1066C00008600820091D08600920C14908604FF4CE
:1066D0000040C049486108610820BF4908600420A3
:1066E00008600820091D08605420B94908604FF46B
:1066F0000040B849486108610820B7490860042093
:1067000008600820091D0860A820B14908604FF4FE
:106710000040B049486108610820AF490860042082
:1067200008600820091D08604620A94908604FF448
:106730000040A849486108610820A7490860042072
:1067400008600820091D08600C20A14908604FF46A
:106750000040A0494861086108209F490860042062
:1067600008600820091D08601720994908604FF447
:106770000040984948610861082097490860042052
:1067800008600820091D08600920914908604FF43D
:10679000004090494861086108208F490860042042
:1067A00008600820091D08600F20894908604FF41F
:1067B0000040884948610861082087490860042032
:1067C00008600820091D08600720814908604FF40F
:1067D000004080494861086108207F490860042022
:1067E00008600820091D08600020794908604FF4FE
:1067F0000040784948610861082077490860E12035
:10680000FDF706F80420744908600820091D086097
:1068100000206F4908604FF400406E4948610861EC
:1068200008206D490860042008600820091D0860E0
:106830001920674908604FF40040664948610861C3
:10684000082065490860042008600820091D0860C8
:106850001B205F4908604FF400405E4948610861B1
:1068600008205D490860042008600820091D0860B0
:1068700004205749086040035649486108610820D0
:1068800055490860042008600820091D0860102090
:106890004F490860C0024F494861086108204E49CD
:1068A0000860042008600820091D08600720484986
:1068B00008604FF400404749486108610820464994
:1068C0000860042008600820091D08602A2040494B
:1068D00008604FF400403F494861086108203E4984
:1068E0000860042008600820091D08604720384916
:1068F00008604FF400403749486108610820364974
:106900000860042008600820091D0860392030490B
:1069100008604FF400402F494861086108202E4963
:106920000860042008600820091D08600320284929
:1069300008604FF400402749486108610820264953
:106940000860042008600820091D0860062020490E
:1069500008604FF400401F494861086108201E4943
:106960000860042008600820091D086006201849F6
:1069700008604FF400401749486108610820164933
:106980000860042008600820091D086030201049B4
:1069900008604FF400400F494861086108200E4923
:1069A0000860042008600820091D08603820084994
:1069B00008604FF400400749486108610820064913
:1069C0000860042008600820091D08600F2005E009
:1069D0000C0C0140001001401008014016490860ED
:1069E0004FF40040154948610861082014490860C7
:1069F0000520FEF7F5FA3A20FCF70AFF04201049BB
:106A000008600820091D086055200B4908604FF4F4
:106A100000400A49486108610820094908601120BE
:106A2000FCF7F6FE0520FEF7DBFA0520FEF7D8FAA4
:106A30002920FCF7EDFE10BD0C0C014000100140B8
:106A40001008014010B502468C7ECB7E44EA03203C
:106A50001378032B05D10C7D4B7D44EA032340EAD8
:106A6000034010BD10B54FF4C06001F023FA40F2AE
:106A7000026001F01FFA40F2036001F01BFA40F2DD
:106A8000046001F017FA01210848FFF74FFB4FF4AB
:106A90008063032210210648FFF7EAFA4FF40053FF
:106AA000032248210348FFF7E3FA10BD000230003B
:106AB00000080140001001401CB5C820FEF790FA04
:106AC000FFF7D0FFFAF7D2FBFDF728FC012268A1FF
:106AD0006848FEF7CFFDFEF76DFDFFF76FFBFDF792
:106AE00099F8FDF7CBFA03213320FDF7C3FB3320E0
:106AF000FDF7A8FB60493320FDF732F95F495E4896
:106B0000FDF73AF90020019020E05B493320FDF7C2
:106B100077F95A495848FDF7D5F9594908604FF0B7
:106B2000824157480068F9F7A1FB044655482346BF
:106B300000905548514902684F48F9F7ABFFFAF702
:106B4000D7FEBDF80400401C80B20190BDF80400DF
:106B50000328DADB4FF480704C49086059E001AB40
:106B60000122D1033320FDF7A5FABDF8040000F09F
:106B70000800D8B140493320FDF742F93F493E486B
:106B8000FDF7A0F93E4908604FF082413C4800689B
:106B9000F9F76CFB04463B48234600903A483749D6
:106BA00002683548F9F776FFFAF7A2FE38484068E0
:106BB000B0F5967F05D24FF480703449091D086006
:106BC00028E03348406840F62E11884221D23048F0
:106BD000406840F2D66188421BD9FDF777FF26490D
:106BE0003320FDF70DF925492348FDF76BF92449BA
:106BF00008604FF0824122480068F9F737FB0446ED
:106C000020482346009020481C4902681A48F9F79A
:106C100041FFA4E700BF01F039F91E4801F024FC50
:106C200000F03CF94FF4806118481038FFF71EFA65
:106C300005201849487000BF164840780328FBD14A
:106C400014E013484068C82810D200BFBFF34F8F2C
:106C50001148006800F4E06010490843001D0E4927
:106C60000860BFF34F8F00BF00BFFEE7E9E70000F9
:106C7000303A000018420020A8010020A817002088
:106C800000000020A811002004000020100801408E
:106C9000AC000020080000200CED00E00000FA0528
:106CA000F0B503461C460D46002000BF161EA2F19B
:106CB000010207D014F8017B15F801CBA7EB0C06F5
:106CC000301EF3D0F0BD70B503460C4603E014F857
:106CD000015B03F8015B151EA2F10102F7D170BD43
:106CE00030B5034601E003F8011B141EA2F10102B6
:106CF000F9D130BD70B504460D46E06AA84210D007
:106D0000204601F04AFA08B1012070BD60780123E5
:106D10002A4604F13001FEF7EEFA08B10120F4E74B
:106D2000E5620020F1E7000070B506460C46154606
:106D3000012C09D1012D07D10F48007810B1304640
:106D400000F004FE002070BD9CB9022D11D10A484C
:106D5000007828B901F030F9304600F0F7FD06E080
:106D600005480078022802D1304600F0EFFD0020EF
:106D7000E9E70220E7E700006201002070B5044661
:106D80000D468121204601F05FFC0221204601F0E2
:106D90005BFC0020044908701F23044A022120469E
:106DA00001F026FE002070BD620100205844002042
:106DB00070B504460D460C4A0021204601F09EFCA9
:106DC000094AD21D0021204601F098FCFFF748F83F
:106DD0000020064908701F23054A0221204601F0C1
:106DE00007FE002070BD00008E010020620100201F
:106DF0005844002070B505460C46207800F060002D
:106E000028B320283ED16078FE2802D0FF2816D172
:106E10000BE000201D4908701D49087001231B4A22
:106E20008021284601F05AFE0FE000201849087022
:106E30001F23184A0221284601F0DAFD05E0214609
:106E4000284601F069FB022070BD00BF1BE060789E
:106E500001280FD00A2802D00B2810D106E0012308
:106E60000D4A8021284601F039FE09E0A0780A4940
:106E7000087005E08121284601F0E0FD00E000BF38
:106E800000BF00BF00BF00BF0020DDE7740100208D
:106E900062010020584400207501002010B54FF415
:106EA000C06000F05DF800220121142000F002F81B
:106EB00010BD00002DE9F04103460D4616460024A2
:106EC0000027A0462448006800F4E060B0F5A06FF9
:106ED00015D006DCB0F5407F18D0B0F5806F19D121
:106EE00010E0B0F5C06F06D0B0F5E06F12D100270A
:106EF0004FF0040815E001274FF0030811E00227C6
:106F0000B8460EE003274FF001080AE004274FF0CF
:106F1000000806E04FF4A06000F022F80227B8460F
:106F200000BF00BFC7F1040005FA00F4C8F1040176
:106F30000F20C8403040044324010848C45403F0E3
:106F40001F01012088405911890001F1E021C1F899
:106F50000001BDE8F08100000CED00E000E400E07D
:106F600002490143024A1160704700000000FA051F
:106F70000CED00E02DE9F04D1D460C4698B017468B
:106F800021F0004123F00043002814BF4FF0010C12
:106F90004FF0000C0CEB440CFE4A0CEB02064FEADF
:106FA000620C66452BD33E0018BF012606EB450652
:106FB0001644F94A964222D3F84A53EA070C02D003
:106FC000944205D148B918B000201146BDE8F08DB3
:106FD000002808BF4FF0000C01D04FF0010C0CEB63
:106FE000440212F5001F0AD8002F14BF4FF0010C05
:106FF0004FF0000C0CEB450212F5001F07D918B03A
:107000003A462B462146BDE8F04DFDF76DBB002208
:10701000DFF88CA3002CB8BF534526DADFF884C311
:107020006345A8BF022220DADFF870C39C451CDC50
:10703000DFF874C30CEB235CBCF1140F08DDCCF15A
:10704000340627FA06FC0CFA06F6BE420DD108E01B
:107050005FB9CCF1140623FA06FC0CFA06F69E4240
:1070600003D10CF00102C2F1020251EA000C19D165
:10707000002D17DA002C18BF022A01D0012A07D0F0
:107080000220FDF759FB18B0BDE8F04DFDF724BB19
:107090000220FDF751FBFDF71FFB18B081F0004106
:1070A000BDE8F08DB7F1000C6CD1534525D104F14A
:1070B000804212F5801201BF00280020B74918B0A5
:1070C00008BFBDE8F08DB548884207DC002DA1BFA0
:1070D0006046294618B0BDE8F08D07E0281E05DAA5
:1070E00080F0004118B06046BDE8F08DAF497944AA
:1070F000D1E9000118B0BDE8F08DDFF8A0C263450A
:1071000025D1002D1FDA19B1514512D1D8B909E0A6
:10711000002840F0EC82A24A214618B062F31E011A
:10712000BDE8F08D0020214618B060F31E01BDE8D7
:10713000F08D08DA18B02346BDE8F04D0246002075
:107140006146F9F722BA18B02146BDE8F08D5145E5
:1071500018DAB5F1804F0DD0A5F1005CBCF1FF5CF1
:1071600010D1B4F1000C0DDB18B06146BDE8F04D54
:1071700000F081BF234618B00246BDE8F04D194625
:10718000F9F791B9060024F0004C3BD1D9B1514533
:1071900033D1002C06DD002DA1BF0020514618B0D0
:1071A000BDE8F08D002C01DD002D1BDB002C13DA77
:1071B000002D11DB012A4FF0000014BF78497C49F3
:1071C00018B0BDE8F08D022A18BF002C0AD0012AA1
:1071D00008D1002C06DA0AE0002CB8BF002D11DA25
:1071E000012A04D0002018B00146BDE8F08D18B087
:1071F00000204FF00041BDE8F08DA1F14050B0F10A
:107200007F601AD0012000EBE47050EA020421D024
:10721000624C521E4FF0000B104304BF4FF0000BA6
:10722000644C654883427CDD644A654893421FDDB7
:10723000884217DB002D25DB37E0002C00DA4AB14D
:10724000022A0CBF01204FF0FF3018B0BDE8F04D0E
:10725000F9F718BA0120FDF76FFA18B0BDE8F04D44
:10726000FDF744BA4D4A8A4202DC002D0ADC1CE0DC
:10727000814202DA002D18DA04E0484B994220DD01
:10728000002D12DD0220FDF757FAFDF735FA05460D
:107290000E460022534658462146F9F704F918B025
:1072A00066F31E012846BDE8F08D0220FDF744FA82
:1072B000FDF72AFA0A46214618B062F31E01BDE81E
:1072C000F08D002230466146F9F7E7F880460E4619
:1072D0006FF00102F9F727FB4FF05532394BF9F700
:1072E000DFF842463346F9F7DEF80022364BF9F76D
:1072F000D7F8824642463346049110461946F9F7BC
:10730000D2F85246049BF9F7CEF88A4600904FF027
:10731000C0422E4B40463146F9F7C5F82C4A2B4B5C
:1073200000E027E0CDE9060151460098F9F7BBF8E7
:1073300082460191274A284B40463146F9F7B3F877
:107340005246019BF9F7A9F882460B460246059181
:10735000DDE90601F9F700F8DDE906230026884695
:107360003046F9F79AF85246059BF9F799F8024624
:1073700000F07EB90020B1F5801F07DA35223046D3
:107380006146F9F7D0FA06466FF0340000EB215061
:1073900024E00000FFFF1F00FFFF0F000000F03F90
:1073A0000000F07F0000404301FCFFFF7E32000040
:1073B0000000F0FF0000F0BF0000E0410000F043DB
:1073C000FFFFEF3F5555D53F0000E03F4715F73F22
:1073D000FE822B6544DF5DF80BAE543EA0F2FF3019
:1073E0000190C1F3130040F07F6141F040510291E0
:1073F000FE498842D8BF002004DDFD498142C8BF54
:10740000012001DD0D9008E000200D900198401C46
:1074100001900298A0F5801002900299F5487844F6
:107420000B910D9900EBC100D0E900230F9330467A
:107430000A920B99F9F731F8CDE90601DDE90A2145
:1074400030460F9BF8F788FF02460B460020EA49BA
:10745000F9F79BF8059102460B460090DDE906011D
:10746000F9F721F81490E5488A464FF0000878446F
:107470000299006812904FF0005040EA61010D98A7
:107480000F9B01EB804000F5002109910A9A1298A8
:10749000F9F703F832460B9BF9F702F842465346D8
:1074A000F9F701F80646029140465146099B129AA7
:1074B000F8F7F9FFDDE90623F8F7F2FF3246029B01
:1074C000F8F7EBFF059B009AF8F7EDFF0091149A8F
:1074D0000490534610461946F8F7E5FF0646024663
:1074E000C7480B46029106217844FDF79FF8CDE985
:1074F0000510029B324610461946F8F7D4FFDDE925
:107500000532F8F7D0FF0591064653464046194626
:10751000149AF8F721FF009B049AF8F7C4FF32464B
:10752000059BF8F719FFCDE9051042465346104672
:107530001946F8F7B8FF0022B24B02910A90F8F70B
:107540000BFFDDE90532F8F707FF0E464246AD4B6B
:107550004046F8F7A2FF029B0A9AF8F79EFFDDE982
:107560000532F8F79DFF424602910A9033461046D5
:107570005146F8F798FFCDE906015346149A02994F
:107580000A98F8F790FF8A460290334642460099DF
:107590000498F8F788FF5346029AF8F7DDFE824612
:1075A0000B4602460591DDE90601F8F7D5FEDDE957
:1075B0000623002088460646F8F76FFF5246059BD3
:1075C000F8F76EFF824609914FF060428E4B3046CD
:1075D0004146F8F768FF049006918C4A8A4B504662
:1075E0000999F8F760FF82460291894A894B304633
:1075F0004146F8F758FF5246029BF8F7ADFE864B1E
:107600007B440D9A03EBC203D3E90023F8F7A4FEF1
:107610000E9007910198F9F735F80591DDE9061309
:1076200082460E9A0498F8F797FE7C4A7A440D9B9E
:1076300002EBC303D3E9002300930292F8F78CFE18
:107640005246059BF8F788FE00268846524630468B
:10765000059BF8F722FF009B029AF8F71EFF069B96
:10766000049AF8F71AFF079B0E9AF8F719FF0246DB
:1076700000200B46029038462946F8F714FF824650
:1076800001912B4638461946029AF8F706FF324612
:107690004346F8F708FF5246019BF8F75DFE0746A0
:1076A0008A463246434629460298F8F7FCFE0546CC
:1076B0000E463A465346F8F74FFE594A88469142DD
:1076C00021DBA8EB020353EA000210D12A4633461D
:1076D000F8F7E3FECDE90401524A534B38465146D0
:1076E000F8F73AFEDDE90423F9F72AF821D202205F
:1076F000FDF722F8FDF700F80A46214618B062F3BC
:107700001E01BDE8F08D494B28F000429A4210D38B
:10771000474A08EB020353EA00027FF4C6AD2A464B
:107720003346F8F7BAFE3A465346F9F709F87FF6BA
:10773000BCAD0022019228F000403E493E4A01EBD8
:107740002051824223DA481C4FF4801121FA00F0C4
:1077500040443A4AC0F30A517A44394BA1F2FF310E
:10776000CB4020EA0303C0F3130040F48010C1F1C2
:107770001401C84012680190B8F1000FBCBF40422C
:10778000019028463146F8F788FE05460E462A46FF
:10779000334638465146F8F7DFFD4FF000084246C1
:1077A000284B40460591F8F77EFECDE90601264AB2
:1077B000264B40460599F8F776FE009102902A463E
:1077C000334640460599F8F768FE3A465346F8F7BF
:1077D00067FE1F4A1F4BF8F766FE009B029AF8F7F8
:1077E000BBFD0746884602460B4635E08E980300EF
:1077F0007AB60B00C62E00000000F03FFE2E0000FF
:107800002C2E00000000084009C7EE3FFD033ADCC3
:10781000F5015B14E02F3EBE042D0000C82C0000D3
:1078200000009040FE822B654715973C00CC9040AD
:1078300000346F3F01FCFFFF0000E03F142C00000C
:10784000FFFF0F00432EE63F396CA80C615C20BEA1
:10785000EF39FAFE422EE63FDDE90601F8F77CFD3E
:10786000DDE9062305460E46F8F717FE3A4643467D
:10787000F8F716FE0F462A46334600901046194682
:10788000F8F711FE824602462E4888460B4605212F
:107890007844FCF7CBFE52464346F8F704FE2A46EE
:1078A0003346F8F7FDFD80468A463B46284631467A
:1078B000009AF8F7F8FD3B46009AF8F74DFD06915F
:1078C000009000224FF0804340465146F8F7E5FD16
:1078D0000F460C904246534628463146F8F7E3FDE2
:1078E0003B460C9AF8F751FE069B009AF8F7D5FD37
:1078F0002A463346F8F7D1FD0022134BF8F7D0FDA6
:10790000054601980E4601EB00510815002810DCD1
:1079100028463146019AF9F706F8FCF773FE042869
:1079200008BFFCF7F1FE28463146019AF8F7FBFF45
:1079300005460B4618B02A4658462146BDE8F04D8C
:10794000F8F7B1BDB42A00000000F03F2DE9F04186
:107950000746E0480078232816D008DC00287DD0B0
:1079600003287CD0122809D01A2879D14CE1252887
:1079700010D0282814D02A28F7D1A6E02422D649EE
:107980003846FDF735F8A2E10C22D4493846FDF718
:107990002FF89CE10822D2493846FDF729F896E1F4
:1079A000D0480078F0BB0120CE490870C9488078E3
:1079B0000006C849C97840EA0140C649097940EA49
:1079C0000120C44949790843C7490860C148007A81
:1079D000C049C97940EA0120C4490860C24800682A
:1079E0004002C1490860C14800684002BF490860C0
:1079F00001235A02BC480168BD48FEF733FA4FF430
:107A00000073BB4A8121384601F068F8B648006827
:107A100000F50070B4490860B4480068A0F5007033
:107A2000B24900E001E008604EE0AE48007801286D
:107A30003DD1AE480068F8B90320AA490870AD48A6
:107A40004468A448007AA349C97940EA0120A949B9
:107A50008968A1EB40250026324602E0B7E0B0E09D
:107A6000D8E029462046FDF723F80D23A24A8121BC
:107A7000384601F033F827E001235A029A4801689A
:107A80009B48FEF7EFF94FF40073994A812138467D
:107A900001F024F89448006800F5007092490860ED
:107AA00092480068A0F50070904908600CE08D488D
:107AB0000078032808D100208A4908701F238D4AC6
:107AC0000221384600F094FF01E18648007860BB4F
:107AD0000220844908707F48807800067D49C97873
:107AE00040EA01407B49097940EA01207949497916
:107AF00008437D4908607748007A7649C97940EAA9
:107B000001207A4908607848006840027649086098
:107B1000764800684002754908604FF40073744A63
:107B20000221384600F064FF4AE06E4800780228DF
:107B300039D1012302026C4801686D48FEF7A2F9B1
:107B40006948006800F50070674908606748006888
:107B5000A0F500706549086008460068D8B90320A0
:107B600060490870634844685A48007A5949C9799D
:107B700040EA01205F498968A1EB40250026324692
:107B800029462046FCF794FF0D235B4A81213846A5
:107B900000F0A4FF14E04FF40073554A0221384668
:107BA00000F026FF0CE04F480078032808D10020A1
:107BB0004C4908701F234F4A0221384600F018FF35
:107BC00085E012224D493846FCF712FF7FE0454818
:107BD000007878B903204349087046490022486874
:107BE0001146FCF765FF0D23434A8121384600F01A
:107BF00075FF08E000203B4908701F233D4A022121
:107C0000384600F0F5FE62E008223D493846FCF7B0
:107C1000EFFE5CE03748007B00F0800090B3314815
:107C2000007858B901202F490870364908600123AF
:107C3000354A8121384600F051FF47E02948007855
:107C4000012811D10320274908702A4A9268511E41
:107C5000284A50680122FCF72BFF0D23264A812178
:107C6000384600F03BFF31E01E48007803282DD154
:107C700000201C4908701F231E4A0221384600F0CC
:107C8000B7FE23E0FFE71748007890B900201D49B0
:107C90000860184A916850680122FCF709FF0D231B
:107CA000154A8121384600F019FF03200D4908705C
:107CB0000CE00C480078032808D10020094908701E
:107CC0001F230C4A0221384600F092FE00BF00BF7D
:107CD000BDE8F0814844002010010020340100205C
:107CE00040010020620100206C0100207001002092
:107CF000A8110020584400207844002048010020AA
:107D00005A01002068010020630100202DE9F0479E
:107D100005460E461746022E02D36869B04202D8C5
:107D20004FF002088AE02878012804D0022841D0C8
:107D300003287DD154E0B14609EB5909286A00EBCC
:107D400059212846FEF7D6FF8046B8F1000F00D033
:107D500071E0C9F3080105F130000C1806F00100CC
:107D600020B1F9B2207861F31F1000E0384620708E
:107D700009F1010901202871286A00EB59212846E0
:107D8000FEF7B8FF8046B8F1000F00D053E0C9F30A
:107D9000080105F130000C1806F0010010B1C7F31E
:107DA000071005E0207800F0F000C7F30321084336
:107DB000207040E0286A00EB16212846FEF79AFF63
:107DC0008046B8F1000F00D035E040F2FF1000EA25
:107DD000460105F130000C182770380A60702AE05F
:107DE000286A00EBD6112846FEF784FF8046B8F1DA
:107DF000000F00D01FE040F2FF1000EA860105F1FD
:107E000030000C18E0780006A17840EA0140617863
:107E100040EA01202178084300F0704007432770B2
:107E2000380A6070380CA070380EE07003E0FFE78D
:107E30004FF0020800BF00BF012028714046BDE896
:107E4000F08700000F4A51680F4A1140082814D2E9
:107E5000DFE800F004050607130A130B00BF00BF9C
:107E600000BF41EA803109E000BF20F004004FF07C
:107E7000805242EA8032114300E000BF00BF014A55
:107E80005160704700100240FF3FFFEF10B500F057
:107E90000DFA40F2026000F00DF840F21C7000F0A4
:107EA00009F84FF4400000F035F840F2177000F088
:107EB00001F810BD064A02EB9011096800F01F039B
:107EC00001229A401143024B03EB9012116070475C
:107ED00000100240064A02EB9011096800F01F03EF
:107EE00001229A409143024B03EB901211607047BC
:107EF00000100240064A02EB9011096800F01F03CF
:107F000001229A401143024B03EB9012116070471B
:107F100000100240044A516821F4400141EA000285
:107F2000014B5A6070470000001002402DE9F041FB
:107F300004460E46022E02D36069B04201D80227E1
:107F400027E0002721E031462046FDF7F3FF0546F4
:107F500005B91DE0012D01D1022719E0681C08B9FF
:107F6000012715E0002231462046FFF7CFFE0746E5
:107F700007B10DE02069401C30B12069401C206130
:107F8000607940F0010060712E466069B042DAD835
:107F900000BF3846BDE8F0810648006880B220F096
:107FA0000400044908600846006880B220F0080018
:107FB00008607047405C0040002005E00449095C0F
:107FC000044A1154411CC8B21028F7DB7047000066
:107FD0006744002048440020026842F400520260D6
:107FE00001617047016841F0400101607047000085
:107FF00010B5044600BF02210A4800F01BF8002813
:10800000F9D02146074800F013F800BF01210548C8
:1080100000F010F80028F9D0024800F005F8C0B2CE
:1080200010BD0000003001400146C86880B27047B2
:10803000C160704702469068084008B1012070474F
:108040000020FCE702460020106800F441500B6855
:1080500018434B6818438B681843CB6818430B6967
:1080600018434B6918438B6918431060D36923F494
:108070000063D36170472DE9F04106460F46F8F7DB
:1080800069FC041E0D4618BF0120284320F0004063
:10809000C0F17F6000F1E040C00F0ED0301C18BF6F
:1080A0000120384320F00040C0F17F6000F1E04043
:1080B000C00F04BF0120FCF73FFB20462946BDE866
:1080C000F08181760B0AC3760A0C02750B0E43759C
:1080D000704770B50446204600F05FF80546002D55
:1080E00059D1207803284FD1607901284CD1420220
:1080F000002104F13000FEF7F3FD552184F82E1223
:10810000AA2184F82F12522084F830005221312005
:108110000155612132200155412133200155722141
:1081200084F8141284F81512412184F81612612182
:1081300084F81712217C84F81812208A010A84F826
:1081400019122069010C84F81A122069010E84F8B2
:108150001B12217B84F81C12A089010A84F81D12CD
:10816000E068010C84F81E12E068010E84F81F120A
:10817000E069401CE0626078012304F13001E26AAA
:10818000FDF7E3F800206071607800221146FDF7EA
:1081900092F800B10125284670BD70B504462079DB
:1081A000F8B1E56A607801232A4604F13001FDF751
:1081B000CCF808B1012070BD00202071206A281A77
:1081C000A16988420DD2E67809E0A069054460788B
:1081D00001232A4604F13001FDF7B7F8761E022E7E
:1081E000F3D20020E7E70000002000212C4A1268AB
:1081F00042F480322A4B1A6000BF401C284A1268A1
:1082000002F4003119B94FF6FF729042F5D1244AB9
:10821000126802F400320AB900BFFEE7204A526831
:108220001F4B5A601A4652685A601A46526842F406
:1082300080625A601A46526822F440325A601A46E6
:10824000526842F440325A601A465268154B1A403E
:10825000134B5A601A465268134B1A43104B5A601C
:108260001A46126842F080721A6000BF0C4A126807
:1082700002F00072002AF9D0094A526822F0030283
:10828000074B5A601A46526842F002025A6000BF19
:10829000034A526802F00802002AF9D07047000031
:1082A00000100240FFFFC3F7000028081D48406887
:1082B00020F003001B4948600846406840F0010078
:1082C00048600846006820F08070086008464068F2
:1082D0001549084013494860084640681349084357
:1082E000104948600846006840F08070086000BF90
:1082F0000C48006800F000700028F9D00948406878
:1083000020F00300074948600846406840F002003A
:10831000486000BF0348406800F008000028F9D01A
:108320007047000000100240FFFFC3F700001C0868
:1083300010B5FFF759FF10BD70B504460D46002675
:10834000287800F01F0020B1012830D0022878D111
:1083500043E06078022802D0032825D100E000BF66
:108360006888012818D10020E07029462046D4F8FA
:108370009C20904700BF002035490968888000BFD5
:108380003449096848F6BF7201EA020080F0300102
:10839000304A116000BF06E06888022803D12946F0
:1083A000204600F0B9F800E000BF00BF4EE0607862
:1083B000022802D003280DD104E02946204600F00F
:1083C000ABF808E02879012803DD2946204600F0B3
:1083D000A3F800E000BF00BF38E02E7960780228E3
:1083E00002D003282AD107E02EB1802E03D02946DF
:1083F000204600F091F822E0688830B92EB1802E36
:1084000003D03146204600F08FF829462046D4F8A4
:108410009C20904700BF00200D490968888000BF5C
:108420000C49096848F6BF7201EA020080F0300189
:10843000084A116000BF00BF01E002E000BF00BFBA
:1084400004E02946204600F067F800BF00BF70BD79
:10845000C0000020005C00400346D3F88C00807808
:108460001080D3F88C0070470021C1700121094AA7
:10847000116000211160121D1160064A1032116056
:108480004FF41F41044A11601146098889B2014A1C
:1084900011607047405C0040B800002070B5044691
:1084A0000D466078032822D1287901281ADC294654
:1084B0002046D4F89C2090470646E888B0B9AEB96B
:1084C00000BF00200E490968888000BF0D49096877
:1084D00048F6BF7201EA020080F03001094A1160DB
:1084E00000BF03E02946204600F016F804E02946C4
:1084F000204600F011F800BF00BF002070BD000052
:10850000C0000020005C00400346D3F888000078DB
:108510001080D3F88800704770B504460D460021DE
:10852000204600F08BFA70BDF0B5024601F07F00E6
:10853000CC117CB300EB800502F1100404EB850341
:1085400000BF2E4D05EB8004D4F8004C04F040042D
:108550006CB105EB8004D4F8004C48F68F752C40C4
:1085600044F04004254E06EB8005C5F8004C00BFE2
:1085700000BF224E06EB8005D5F8005C48F6BF76BA
:1085800005EA060484F030051C4F07EB8006C6F8A8
:10859000005C30E0FFE700EB800502F14C0404EBE7
:1085A000850300BF154D05EB8004D4F8004C04F49E
:1085B00080446CB105EB8004D4F8004C48F68F750C
:1085C0002C4044F480440D4E06EB8005C5F8004C69
:1085D00000BF00BF094E06EB8005D5F8005C4BF6E6
:1085E0008F7605EA060484F44055044F07EB8006B5
:1085F000C6F8005C00BF00241C70F0BD00500040B5
:1086000070B5074D05EB4104002304E034F8046B1A
:108610000680801C5B1C551CB3EB550FF6D370BD58
:108620000060004030B5074D05EB4104002303E036
:10863000058820C4801C5B1C551CB3EB550FF7D379
:1086400030BD00000060004030B5034601F07F00FF
:10865000CA113AB300BF284C04EB8002D2F8002CB8
:1086600002F040026AB104EB8002D2F8002C48F616
:108670008F74224042F040021F4D05EB8004C4F885
:10868000002C00BF00BF1C4D05EB8004D4F8004C4B
:1086900048F6BF7504EA0502174D05EB8004C4F8DF
:1086A000002C27E000BF144C04EB8002D2F8002C11
:1086B00002F480426AB104EB8002D2F8002C48F642
:1086C0008F74224042F480420B4D05EB8004C4F8C5
:1086D000002C00BF00BF084D05EB8004D4F8004C0F
:1086E0004BF68F7504EA0502034D05EB8004C4F8D0
:1086F000002C00BF30BD0000005000402DE9F043C9
:1087000005460B4614462246967806F00F000021D7
:10871000D67806F0030636B1012E0CD0022E05D015
:10872000032E0BD104E04FF4007108E0002106E0B5
:108730004FF4C06103E04FF4806100E000BF00BF70
:1087400041EA0006B6B2DFF89CC20CEB8007C7F81E
:10875000006C91889678F611002E77D000EB800C93
:1087600005F1100606EB8C0779609F4E3688DFF81E
:108770007CC2DCF800C00CEB001CACF800604E1CA6
:1087800026F00101984E36680E44DFF85CC2CCF842
:108790000060012B44D1DFF84CC20CEB8006D6F808
:1087A000006C46F4807648F68F7C06EA0C06DFF80B
:1087B000348208EB800CCCF8006C8B4E3688DFF8E6
:1087C0002CC2DCF800C00CEB001CACF80860864E34
:1087D00036680E44DFF810C2CCF8006000BF08EB2A
:1087E000800CDCF800CC48F6BF780CEA080686F06E
:1087F000300CDFF8F09109EB8008C8F800CC00BF1E
:1088000000BFC84608EB800CDCF800CC4BF68F7834
:108810000CEA0806C84608EB800CCCF8006C13E0A4
:1088200000BFDFF8C08108EB800CDCF800CC48F614
:10883000BF780CEA080686F0200CDFF8A89109EB57
:108840008008C8F800CC00BFC9E0FFE700EB800C4F
:1088500005F14C0606EB8C077960012B55D1DFF84A
:1088600084C10CEB8006D6F8006C46F4807648F69E
:108870008F7C06EA0C06DFF86C8108EB800CCCF8E4
:10888000006CC4460CEB8006D6F8006C48F68F7C72
:1088900006EA0C0646F0400608EB800CCCF8006CAB
:1088A000514E3688DFF844C1DCF800C00CEB001CE8
:1088B000ACF800603E2912D901F11F0626F01F0115
:1088C0000126C6EB4116B6B246F40046DFF81CC1DD
:1088D000DCF800C00CEB001CACF804600EE04E1C91
:1088E00026F001014FF6FF7606EA4126DFF8FCC0CC
:1088F000DCF800C00CEB001CACF804603A4E3668A3
:108900000E44DFF8E4C0CCF800609188364E36881B
:10891000DFF8D8C0DCF800C00CEB001CACF8086035
:108920003E2912D901F11F0626F01F010126C6EBD0
:108930004116B6B246F40046DFF8B0C0DCF800C01D
:108940000CEB001CACF80C600EE04E1C26F0010194
:108950004FF6FF7606EA4126DFF890C0DCF800C04B
:108960000CEB001CACF80C60012B23D100BFDFF82E
:10897000748008EB800CDCF800CC4BF68F780CEAA6
:108980000806DFF8608008EB800CCCF8006C00BFB4
:1089900000BF08EB800CDCF800CC48F6BF780CEA8E
:1089A000080686F0200CDFF83C9009EB8008C8F838
:1089B00000CC13E000BFDFF82C8008EB800CDCF863
:1089C00000CC4BF68F780CEA080686F4005CDFF8E2
:1089D000149009EB8008C8F800CC00BF00BFBDE8C8
:1089E000F083000000500040BC000020C0000020C8
:1089F0002DE9F041044601F07F0000EB800704F10F
:108A00004C0606EB8705AA60EB6000BFDFF828C0C4
:108A10000CEB8007D7F8007C4BF68F7C07EA0C063E
:108A200086F44057DFF8108008EB800CCCF8007C0F
:108A300000BFBDE8F081000000500040F0B50246E4
:108A400001F07F00CC11BCB100EB800502F11004F5
:108A500004EB850300BF204E06EB8005D5F8005CD3
:108A600048F6BF7605EA060484F010051A4F07EBB6
:108A70008006C6F8005C17E000EB800502F14C04AC
:108A800004EB850300BF144E06EB8005D5F8005CAF
:108A90004BF68F7605EA060484F480550E4F07EBFB
:108AA0008006C6F8005C00BF01241C7098B900BFA6
:108AB000094E06EB8005D5F8005C4BF6BF7605EA5B
:108AC000060484F4805585F01005034F07EB8006FB
:108AD000C6F8005C00BFF0BD005000402DE9F8432F
:108AE00006460F46904699460020009007F07F0505
:108AF00005EB850106F1100000EB8104C4F8088045
:108B0000C4F80C90002020616168E068884202D9B6
:108B10006068009001E0E0680090009B9AB2114B01
:108B20001B6803EB05131988A068FFF77BFD0D494F
:108B30000098096801EB0511888000BF0A4A02EB22
:108B40008501D1F8001C48F6BF7201EA020080F0EE
:108B50003001054B03EB8502C2F8001C00BFBDE8E5
:108B6000F8830000C00000200050004038B50446E3
:108B70000D4600200090E888012804D029462046B0
:108B8000FFF7CAFC19E06078022802D003280ED152
:108B900006E001236A4680212046FFF79FFF0BE095
:108BA0000123224680212046FFF798FF04E0294652
:108BB0002046FFF7B1FC00BF00BF38BD2DE9F843E8
:108BC00005460C46207800F01F0078BB4FF00008E7
:108BD00060880612A77800200090032E0BD8052F7E
:108BE00009D8701E194951F820306A46394628467E
:108BF0009847804603E021462846FFF78DFCBDF8E4
:108C0000000090B1E08880B1E088BDF80010884293
:108C100002DDBDF8000000E0E0880090BDF8003003
:108C2000424680212846FFF759FF0DE0FFE72078F4
:108C300000F01F00012807D1D5F89C0020B1214683
:108C40002846D5F89C209047BDE8F8830001002015
:108C500070B504460D466078022802D0032816D16C
:108C600004E029462046FFF757FC11E02879012847
:108C700008DCD4F89C0048B129462046D4F89C2052
:108C8000904703E029462046FFF746FC00E000BF7E
:108C900000BF70BD7CB504460E46002001900090D8
:108CA000307800F01F0020B101281AD0022867D1C7
:108CB00034E06078022802D003280FD100E000BF22
:108CC000E07820B1BDF8040040F0020001900223DA
:108CD00001AA80212046FFF701FF00E000BF00BF8E
:108CE00053E06078022802D0032814D104E0314612
:108CF0002046FFF711FC0FE03079012806DC022343
:108D000001AA80212046FFF7E9FE03E03146204614
:108D1000FFF702FC00E000BF00BF36E03579607865
:108D2000022802D0032828D107E02DB1802D03D0DE
:108D300031462046FFF7F0FB20E005F08000802858
:108D40000BD105F07F0000EB800104F1100010F85A
:108D5000210058B10120009008E005EB850104F1E5
:108D60004C0010F8210008B10120009002236A464F
:108D700080212046FFF7B2FE00E000BF00BF04E004
:108D800031462046FFF7C8FB00BF00BF7CBD000096
:108D900070B505460E4606EB860105F1100000EBA6
:108DA0008104002E64D1E868002853D06168E0682F
:108DB000884211D96168E068401AE060A08983B2F6
:108DC00080212846A268FFF789FE00231A4619462B
:108DD0002846FFF70DFE62E06168E068B0FBF1F243
:108DE00001FB120090B9E068E96888420ED20023C6
:108DF0001A4680212846FFF771FE0020E860002314
:108E00001A4619462846FFF7F3FD48E00020E060C7
:108E10006878032805D1002201212846D5F8A03022
:108E2000984700BF1F48006840F4807048F68F7173
:108E300008401C49086000BF09684BF68F7201EAC0
:108E4000020080F44051174A116000BF00BF0020AB
:108E5000E86024E01448007808B31348007840F034
:108E6000800010494C31086000200F49087016E05E
:108E7000D4E90301401AE060E06848B96878032843
:108E80000DD1324601212846D5F8A030984706E09A
:108E9000A08983B231462846A268FFF71FFE002052
:108EA00070BD0000005C0040C8000020014614486E
:108EB000007818B312480078401E114A107010460E
:108EC0000078D8B90F48007801280AD10E48006808
:108ED00080B220F010000C4A10600020094A107087
:108EE0000CE00948006880B240F01000064A1060AB
:108EF0000320034A10700120024A107000207047BE
:108F0000C4000020C6000020405C00402DE9FC4168
:108F100007460025002001900090002495E0BDF850
:108F2000040000F00F054E4901EB8500D0F8000C5D
:108F300080B20090BDF8040000F0100048BB05EBC3
:108F4000850107F1100000EB8104BDF8000000F07E
:108F50008000002879D0424901EB8500D0F8000C50
:108F600048F60F7108403E4A02EB8501C1F8000C3B
:108F70003C48006800EB05108088C0F309002061C0
:108F80002169A0680844A06029463846FFF700FF21
:108F90005BE0002605EB850107F14C0000EB810446
:108FA000BDF8000000F4004000284DD02C4901EB32
:108FB0008500D0F8000CC0F30E0048F68F71084011
:108FC000274A02EB8501C1F8000C2648006800EB37
:108FD00005108089C0F30906D6B1BDF8000000F481
:108FE000006060B11F48006801893246381DFFF7F4
:108FF00007FB384600F031FB0020BDE8FC81194A30
:10900000126802EB051211893246A068FFF7F8FAE0
:10901000206930442061A0683044A060E068801B73
:10902000E060E06810B16068B04206D92946384671
:1090300000F008F90020206106E0A08983B22946EB
:109040003846A268FFF7D4FC00BF0748006880B22A
:10905000019000F4004000287FF461AF00BFCCE72E
:1090600000500040C0000020445C004010B50246A3
:109070003020214B186018460088204B1B68188050
:109080001D48006840301C4B1860184600881B4B78
:109090001B681881184800684030174B186048F268
:1090A000FF70164B1B6898814023536113650021A4
:1090B0000FE0134B03EB8100D0F8000C48F68F73E0
:1090C000184008430E4C04EB8103C3F8000C481C05
:1090D000C1B20329EDDB80200A4B186009484C38E7
:1090E000006880B2074B4C3B186043F220201860A8
:1090F00001205070002010BDBC000020C0000020E6
:10910000005000404C5C004010B504460448006824
:1091100020B103480068016820468847002010BD40
:109120007801002010B504466078A07004206070BB
:109130000548007810B100F0CFFA02E0032003499F
:109140000870002010BD0000C5000020C4000020F1
:1091500010B50446A07860700348007808B9FEF79F
:109160001BFF002010BD0000C60000201CB5002021
:10917000019000903048006880B201902F4800882C
:1091800000F40040BDF80410084010B12C48FFF76F
:10919000BDFE2A48008800F48050BDF80410084045
:1091A00030B14EF6FF70244908602548FFF7D0FF24
:1091B0002248008800F40060BDF80410084060B147
:1091C0001D48001F006800F0100030B91C48FFF770
:1091D000A9FF4FF2FF70184908601848008800F492
:1091E0000070BDF80410084030B14FF6FF5012492E
:1091F00008601348FFF788FF1048008800F480706B
:10920000BDF80410084030B14FF6FF600A4908600D
:109210000B48FFF74BFE0948008800F48060BDF85A
:109220000410084030B14FF6FF300349086004488D
:10923000FFF71CFF1CBD0000445C0040B80000208C
:109240000800002070B504460E4606EB860104F1C6
:109250004C0000EB81057EBBE06870B36968E8688C
:1092600088420BD96968E868401AE860A88983B227
:1092700000212046AA68FFF7BBFB30E06078032896
:1092800005D1002211462046D4F8A030984700BFEF
:10929000002014490968888000BF1349096848F60E
:1092A000BF7201EA020080F030010F4A116000BF76
:1092B00000BF0020E06012E008E0FFE70A48006815
:1092C00048F68F6108400849086008E06078032884
:1092D00005D1324600212046D4F8A030984700201E
:1092E00070BD0000C0000020005C0040704700001E
:1092F00070B504460D46A88848BBE88838BBA878F6
:1093000000F07F00144908706078032804D12946D2
:109310002046FFF701F91EE000BF00200F49096851
:10932000888000BF0E49096848F6BF7201EA020052
:1093300080F030010A4A116000BF00BF0648007883
:1093400010B10220607006E00120607003E0294641
:109350002046FFF7E1F870BDC8000020C0000020E3
:10936000005C004070B504460D46A8784F4908706F
:1093700008460078012804DD29462046FFF7CCF88E
:1093800093E06078022802D0032878D132E0474881
:109390000078E0B1454800782070032060704348B1
:1093A00001782046D4F89420904700BF002040491F
:1093B0000968888000BF3F49096848F6BF7201EA22
:1093C000020080F030013B4A116000BF11E000BF95
:1093D000002037490968888000BF3649096848F687
:1093E000BF7201EA020080F03001324A116000BF12
:1093F00000BF59E02D480078E0B9022060702B488A
:1094000000782070294801782046D4F898209047A9
:1094100000BF002026490968888000BF25490968E7
:1094200048F6BF7201EA020080F03001214A116063
:1094300000BF37E020781D490978884220D0217884
:109440002046D4F898209047184800782070174894
:1094500001782046D4F89420904700BF002014499A
:109460000968888000BF1349096848F6BF7201EA9D
:10947000020080F030010F4A116000BF12E012E0DC
:1094800000BF00200A490968888000BF09490968AF
:1094900048F6BF7201EA020080F03001054A11600F
:1094A00000BF00BF00E000BF00BF70BD0C01002086
:1094B000C0000020005C00407047000070B5054609
:1094C0000C460026207800F01F0020B1012823D090
:1094D000022865D136E06878022802D0032818D126
:1094E00000E000BF6088012812D1E87000BF0020B2
:1094F0002F490968888000BF2E49096848F6BF7265
:1095000001EA020080F030012A4A116000BF00BF6A
:1095100000E000BF00BF48E06878022802D00328BE
:109520000DD104E021462846FEF7F6FF08E0207939
:10953000012803DD21462846FEF7EEFF00E000BFCC
:1095400000BF32E026796878022802D0032824D1AF
:1095500007E02EB1802E03D021462846FEF7DCFF1F
:109560001CE0608830B92EB1802E03D031462846E9
:10957000FFF764FA00BF00200D490968888000BF2A
:109580000C49096848F6BF7201EA020080F0300118
:10959000084A116000BF00BF00E000BF00BF04E048
:1095A00021462846FEF7B8FF00BF00BF70BD00008F
:1095B000C0000020005C004070B504460D46607895
:1095C000022802D0032827D104E029462046FEF7CE
:1095D000A3FF22E02879012819DCD4F89C0020B1EF
:1095E00029462046D4F89C20904700BF00200C4913
:1095F0000968888000BF0B49096848F6BF7201EA14
:10960000020080F03001074A116000BF03E02946E4
:109610002046FEF781FF00E000BF00BF70BD0000E4
:10962000C0000020005C004010B50246101D037809
:109630000B7043784B708478C37804EB03234B8022
:109640000479437904EB03238B808479C37904EB99
:109650000323CB80CB88D36010BD1CB5044669467C
:109660002046FFF7E1FF9DF8000000F0600020B108
:10967000202807D040280FD109E06946204600F095
:1096800013F80EE069462046FEF708FF09E0694638
:10969000204600F02CF804E000212046FFF7CEF928
:1096A00000BF00BF00201CBD70B505460C466078A9
:1096B000034951F82020214628469047002070BDDC
:1096C000CC00002010B50346D3F8904054F8210098
:1096D0000478148010BD00000348006880B240F098
:1096E0000C00014908607047405C0040704702462A
:1096F0000020704770B505462C464CB1206838B143
:109700002068007820B12068C088A188884201D0F4
:10971000092070BD21684878FBF714FE00F00100B5
:1097200008B10320F5E70020F3E700000000000087
:1097300000000000000000000000000000101010F9
:1097400010101010000018180000001236244800F5
:10975000000000000000000000000000002424249D
:10976000FE484848FE48484800000000103854545D
:109770005030181414545438101000000044A4A899
:10978000A8A8541A2A2A2A44000000000030484899
:1097900048506EA4948889760000000C0C000000EC
:1097A0000000000000000000000000020408081093
:1097B00010101010100808040200004020101008BB
:1097C00008080808081010204000000000001010D1
:1097D000D63838D61010000000000000000010102D
:1097E0001010FE101010100000000000000000001B
:1097F000000000000000606020C0000000000000C9
:1098000000007F00000000000000000000000000D9
:10981000000000000000606000000000010202047F
:1098200004080810102020404000000000182442C6
:1098300042424242424224180000000000107010D0
:10984000101010101010107C00000000003C42426C
:10985000420404081020427E00000000003C424206
:1098600004180402024244380000000000040C14F2
:10987000242444447E04041E00000000007E404076
:10988000405864020242443800000000001C24409A
:10989000405864424242241800000000007E4444C4
:1098A000080810101010101000000000003C424288
:1098B000422418244242423C000000000018244286
:1098C0004242261A02022438000000000000000074
:1098D0001818000000001818000000000000000028
:1098E000001000000000001010200000000204081A
:1098F00010204020100804020000000000000000BA
:10990000FE000000FE0000000000000000402010EB
:10991000080402040810204000000000003C4242FD
:109920006202040808001818000000000038445AB9
:10993000AAAAAAAAB44244380000000000101018D5
:109940002828243C444242E70000000000F8444438
:1099500044784442424244F800000000003E424243
:1099600080808080804244380000000000F844423B
:1099700042424242424244F80000000000FC424899
:1099800048784848404242FC0000000000FC424841
:1099900048784848404040E000000000003C444413
:1099A0008080808E844444380000000000E74242FA
:1099B00042427E42424242E700000000007C10101A
:1099C000101010101010107C00000000003E08085D
:1099D000080808080808080888F0000000EE444855
:1099E00050705048484444EE0000000000E0404001
:1099F00040404040404042FE0000000000EE6C6CE1
:109A00006C6C5454545454D60000000000C7626279
:109A100052524A4A4A4646E2000000000038448258
:109A200082828282828244380000000000FC42422E
:109A300042427C40404040E0000000000038448248
:109A400082828282B2CA4C380600000000FC424288
:109A5000427C4848444442E300000000003E424249
:109A6000402018040242427C0000000000FE9210D8
:109A700010101010101010380000000000E74242D3
:109A8000424242424242423C0000000000E7424261
:109A900044242428281810100000000000D69292B8
:109AA0009292AAAA6C4444440000000000E74224B9
:109AB00024181818242442E70000000000EE444453
:109AC000282810101010103800000000007E8404B8
:109AD00008081020204242FC0000001E1010101048
:109AE00010101010101010101E0000004040202018
:109AF000101010080804040402020078080808087E
:109B000008080808080808087800001C220000005F
:109B10000000000000000000000000000000000045
:109B2000000000000000000000FF00606020C00096
:109B30000000000000000000000000000000000025
:109B4000003C421E2242423F0000000000C0404054
:109B50004058644242426458000000000000000087
:109B6000001C22404040221C0000000000060202AF
:109B7000021E22424242261B00000000000000009C
:109B8000003C427E4040423C00000000000F1110AB
:109B9000107E10101010107C00000000000000006B
:109BA000003E444438403C42423C000000C040403B
:109BB000405C6242424242E7000000000030300058
:109BC000007010101010107C00000000000C0C0041
:109BD000001C0404040404044478000000C0404055
:109BE000404E4850684844EE0000000000701010DD
:109BF000101010101010107C000000000000000079
:109C000000FE4949494949ED0000000000000000FC
:109C100000DC6242424242E7000000000000000017
:109C2000003C42424242423C000000000000000072
:109C300000D864424242447840E000000000000046
:109C4000001E22424242221E0207000000000000C5
:109C500000EE3220202020F800000000000000006C
:109C6000003E42403C02427C000000000000001028
:109C7000107C10101010100C0000000000000000FC
:109C800000C642424242463B000000000000000085
:109C900000E742242428101000000000000000000B
:109CA00000D79292AAAA44440000000000000000DD
:109CB000006E241818182476000000000000000030
:109CC00000E742242428181010E0000000000000E3
:109CD000007E44081010227E0000000304040404E7
:109CE000040804040404040403000808080808081D
:109CF0000808080808080808080800601010101074
:109D000010081010101010106000304C43000000BC
:109D1000000000000000000000000FE03FF87FFCA2
:109D20007FFCFC7EFC7EFC7EFC7EFC7EFC7EFC7E62
:109D3000FC7EFC7EFC7EFC7EFC7EFC7EFC7EFC7E53
:109D4000FC7EFC7EFC7E7FFC7FFC3FF80FE003C0C6
:109D500007C01FC07FC0FFC0FFC0FFC01FC00FC033
:109D60000FC00FC00FC00FC00FC00FC00FC00FC07B
:109D70000FC00FC00FC00FC00FC00FC00FC00FC06B
:109D80000FC00FC03FF07FF87FF8F8FCF8FCF8FC3C
:109D9000F8FCF8FC01FC01F803F803F807F007F001
:109DA0000FE00FC01FC01F803F803F007F007FF883
:109DB000FFF8FFF8FFF81FE07FF87FFCFFFCFE7E56
:109DC000FE7EFE7EFE7E007E00FE07FC07F007FCA6
:109DD00007FE00FE007EFE7EFE7EFE7EFE7EFE7E96
:109DE000FE7EFFFC7FFC3FF80FE00FF00FF01FF04E
:109DF0001FF01FF03FF03BF03BF07BF073F073F08F
:109E0000F3F0F3F0E3F0E3F0FFFCFFFCFFFCFFFCFA
:109E1000FFFCFFFC03F003F003F003F003F0FFFE90
:109E2000FFFEFFFEFFFEFC00FC00FC00FCF0FFFC60
:109E3000FFFCFFFEFC7EFC7E007E007E007EFC7E42
:109E4000FC7EFC7EFC7EFC7EFC7E7FFC7FFC3FF883
:109E50000FE00FE03FF87FFC7FFCFC7EFC7EFC7E89
:109E6000FC00FC00FDF0FFFCFFFCFFFEFC7EFC7E26
:109E7000FC7EFC7EFC7EFC7EFC7EFC7EFC7E7FFC11
:109E80007FFC3FF80FE0FFF8FFF8FFF8FFF801F85C
:109E900001F801F801F001F003F003F003F003F022
:109EA00003E007E007E007E007E007C00FC00FC0CE
:109EB0000FC00FC00F801F801F800FE03FF87FFC96
:109EC0007FFCFC7EFC7EFC7EFC7EFC7EFC7E7FFCC0
:109ED0003FF07FFC7FFEFC7EFC7EFC7EFC7EFC7EF9
:109EE000FC7EFC7EFC7E7FFE7FFC3FF80FE00FE0F7
:109EF0003FF87FFC7FFCFC7EFC7EFC7EFC7EFC7ED3
:109F0000FC7EFC7EFC7EFC7EFFFE7FFE7FFE1F7ED5
:109F1000007E007EFC7EFC7EFC7E7FFC7FFC3FF8AA
:109F20000FE0000000000000000000000000000042
:109F30000000000000000000000000000000000021
:109F400000000000000000000000000007C007C083
:109F500007C007C007C000000000000000000000AC
:109F60000000000000000000000000000000FF8072
:109F7000FF80FF80FF800000000000000000000064
:109F800000000000000000000000000000000000D1
:109F900000000000000000000000000000000000C1
:109FA00000000000000000000000000000000000B1
:109FB0000000000000000000000000000000700031
:109FC000D800D800D800D80071F007FC0FFE1FFEA3
:109FD0001F9F1F9F1F9F1F9F1F801F801F801F800D
:109FE0001F9F1F9F1F9F1F9F1F9F0FFE0FFE07FC9E
:109FF00003F00F400F400F40104010381038103859
:10A000001038103010301030102810281028102868
:10A0100010201020102010181018111811181110ED
:10A020001110111011081108110811001100110070
:10A0300011001100310031005100720072009200D5
:10A04000B200B200D200F200F2001201320152015D
:10A050005201720192019201B201D201F301F301A6
:10A06000130233025302530273029302B302D30268
:10A07000D302F30213033303330353037303940331
:10A08000B403D403D403F403140434045404740454
:10A0900074049404B404D404F4041405340534059D
:10A0A000540554057405740573057305730572052D
:10A0B00072057205710591059105900590058F0552
:10A0C0008F058F058E05AE05AE05AD05AD05AD0559
:10A0D000AC05AC05AB05CB05CB05CA05CA05CA0561
:10A0E000C905C905C805E805E805E705E705E6056A
:10A0F000E605E605E505E50504060406040603068F
:10A100000306020602060106210621062006200695
:10A1100020062006200E200E400E40164016401E3F
:10A12000401E40264026402E602E60366036603E3F
:10A13000603E603E60466046604E804E805680566F
:10A14000805E805E80668066806EA06EA076A0765F
:10A15000A07EA07EA086A086A08EC08EC096C0964F
:10A16000C09EC09EC0A6C0AEC0AEE0B6E0B6E0BE27
:10A17000E0BEE0C6E0C6E0CEE0CEE0D600D700DF2D
:10A18000E0DEC0DEA0DE80DE80DE60E640E620E6C7
:10A1900000E6E0E5C0E5A0E580E560E540E520E516
:10A1A00000E5E0E4C0E4A0E480E460E440EC20ECFE
:10A1B00000ECE0EBC0EBA0EB80EB60EB40EB20EBC6
:10A1C00000EBE0EAC0EAA0EA80EA60EA40EA20F2B6
:10A1D00000F2E0F1C0F1A0F180F160F140F100F196
:10A1E000E0F0C0F0A0F080F060F040F020F000005F
:10A1F000FFFF9F9B96918C86817C77726D67625D75
:10A2000058534E48433E39342F29241F1A15100A3B
:10A21000050000050A10151A1F252A2F34393F445E
:10A22000494E54595E63686E7377000053617665DA
:10A2300020506963747572652E2E2E000000000098
:10A240000000000016034700690067006100440039
:10A250006500760069006300650000003003470078
:10A26000440033003200200055005300420020001B
:10A270004D0053004300200069006E00200046009E
:10A28000530020004D006F006400650000003003A3
:10A2900047004400330032004600330030005800CD
:10A2A0002D00560033002E0030002E0030002D000F
:10A2B0003300610034006200350065006300000077
:10A2C0001201000200000040E9288502000101029D
:10A2D0000301040309040000D2A2000844A20008FC
:10A2E0005CA200088EA20008000000000000F03F01
:10A2F000000000000000F83F000000000000000027
:10A300000000004003B8E23F000000000000000031
:10A3100006D0CF43EBFD4C3E033333333333E33FBF
:10A32000FFAB6FDBB66DDB3F4D268F515555D53FEB
:10A3300001411DA96074D13F65DBC9934A86CD3FB9
:10A34000EF4E454A287ECA3F3E5555555555C53FA7
:10A3500093BDBE166CC166BF2CDE25AF6A56113F99
:10A36000F16BD2C541BDBBBED0A4BE726937663E9B
:10A37000000000000000000098A30008000000207A
:10A38000A80100003C0A000850A40008A801002011
:10A39000504E0000284700084105883333733F13AF
:10A3A000C0A214087C011B20D80813B16D1B087DC6
:10A3B000041AF5041A290401104230126012406296
:10A3C0000113958C140839831408ED924C08BD9440
:10A3D000082AF10C128B1B08B9101A6D081365932B
:10A3E0001B0851281BB995201296140809851408DA
:10A3F00059841B08C50C51128033011F1E4744337A
:10A40000322001280B4E616E6420466C6173680E29
:10A410002E2020312E3077192C147FFF0232022398
:10A420007FFF120212704205420A522002210314D9
:10A430000902201808010104C03209044314080667
:10A44000502607058102402C07050207C1000000C5
:0400000508000131BD
:00000001FF
